{
  "_format": "hh-sol-artifact-1",
  "contractName": "Healthcare",
  "sourceName": "contracts/Healthcare.sol",
  "abi": [
    {
      "inputs": [],
      "stateMutability": "nonpayable",
      "type": "constructor"
    },
    {
      "anonymous": false,
      "inputs": [
        {
          "indexed": true,
          "internalType": "address",
          "name": "_doctor",
          "type": "address"
        }
      ],
      "name": "DoctorApproved",
      "type": "event"
    },
    {
      "inputs": [
        {
          "internalType": "string",
          "name": "_info",
          "type": "string"
        },
        {
          "internalType": "address",
          "name": "_address",
          "type": "address"
        }
      ],
      "name": "addPatient",
      "outputs": [],
      "stateMutability": "nonpayable",
      "type": "function"
    },
    {
      "inputs": [
        {
          "internalType": "address",
          "name": "_doctor",
          "type": "address"
        }
      ],
      "name": "allowDoctor",
      "outputs": [],
      "stateMutability": "nonpayable",
      "type": "function"
    },
    {
      "inputs": [],
      "name": "getAllMyPatients",
      "outputs": [
        {
          "internalType": "address[]",
          "name": "",
          "type": "address[]"
        }
      ],
      "stateMutability": "view",
      "type": "function"
    },
    {
      "inputs": [
        {
          "internalType": "string",
          "name": "_name",
          "type": "string"
        }
      ],
      "name": "getMyReportByName",
      "outputs": [
        {
          "components": [
            {
              "internalType": "string",
              "name": "name",
              "type": "string"
            },
            {
              "internalType": "string",
              "name": "prescription",
              "type": "string"
            },
            {
              "internalType": "uint256",
              "name": "time",
              "type": "uint256"
            },
            {
              "internalType": "address",
              "name": "doctor",
              "type": "address"
            },
            {
              "internalType": "address",
              "name": "patient",
              "type": "address"
            }
          ],
          "internalType": "struct Healthcare.Report",
          "name": "",
          "type": "tuple"
        }
      ],
      "stateMutability": "view",
      "type": "function"
    },
    {
      "inputs": [
        {
          "internalType": "string",
          "name": "_name",
          "type": "string"
        },
        {
          "internalType": "address",
          "name": "_patient",
          "type": "address"
        }
      ],
      "name": "getPatientReportByName",
      "outputs": [
        {
          "components": [
            {
              "internalType": "string",
              "name": "name",
              "type": "string"
            },
            {
              "internalType": "string",
              "name": "prescription",
              "type": "string"
            },
            {
              "internalType": "uint256",
              "name": "time",
              "type": "uint256"
            },
            {
              "internalType": "address",
              "name": "doctor",
              "type": "address"
            },
            {
              "internalType": "address",
              "name": "patient",
              "type": "address"
            }
          ],
          "internalType": "struct Healthcare.Report",
          "name": "",
          "type": "tuple"
        }
      ],
      "stateMutability": "view",
      "type": "function"
    },
    {
      "inputs": [],
      "name": "makeThisAddressHospital",
      "outputs": [],
      "stateMutability": "nonpayable",
      "type": "function"
    },
    {
      "inputs": [],
      "name": "owner",
      "outputs": [
        {
          "internalType": "address",
          "name": "",
          "type": "address"
        }
      ],
      "stateMutability": "view",
      "type": "function"
    },
    {
      "inputs": [
        {
          "internalType": "address",
          "name": "_to",
          "type": "address"
        },
        {
          "internalType": "string",
          "name": "_reportName",
          "type": "string"
        },
        {
          "internalType": "string",
          "name": "_prescription",
          "type": "string"
        }
      ],
      "name": "sendReport",
      "outputs": [],
      "stateMutability": "nonpayable",
      "type": "function"
    },
    {
      "inputs": [],
      "name": "showAllDoctors",
      "outputs": [
        {
          "internalType": "address[]",
          "name": "",
          "type": "address[]"
        }
      ],
      "stateMutability": "view",
      "type": "function"
    },
    {
      "inputs": [],
      "name": "showAllHospitals",
      "outputs": [
        {
          "internalType": "address[]",
          "name": "",
          "type": "address[]"
        }
      ],
      "stateMutability": "view",
      "type": "function"
    },
    {
      "inputs": [],
      "name": "showMyHospital",
      "outputs": [
        {
          "internalType": "address",
          "name": "",
          "type": "address"
        }
      ],
      "stateMutability": "view",
      "type": "function"
    },
    {
      "inputs": [],
      "name": "showMyReports",
      "outputs": [
        {
          "components": [
            {
              "internalType": "string",
              "name": "name",
              "type": "string"
            },
            {
              "internalType": "string",
              "name": "prescription",
              "type": "string"
            },
            {
              "internalType": "uint256",
              "name": "time",
              "type": "uint256"
            },
            {
              "internalType": "address",
              "name": "doctor",
              "type": "address"
            },
            {
              "internalType": "address",
              "name": "patient",
              "type": "address"
            }
          ],
          "internalType": "struct Healthcare.Report[]",
          "name": "",
          "type": "tuple[]"
        }
      ],
      "stateMutability": "view",
      "type": "function"
    },
    {
      "inputs": [
        {
          "internalType": "string",
          "name": "_prescription",
          "type": "string"
        },
        {
          "internalType": "address",
          "name": "_patient",
          "type": "address"
        },
        {
          "internalType": "string",
          "name": "_name",
          "type": "string"
        }
      ],
      "name": "updateReport",
      "outputs": [],
      "stateMutability": "nonpayable",
      "type": "function"
    }
  ],
  "bytecode": "0x608060405234801561001057600080fd5b5033600560006101000a81548173ffffffffffffffffffffffffffffffffffffffff021916908373ffffffffffffffffffffffffffffffffffffffff160217905550612861806100616000396000f3fe608060405234801561001057600080fd5b50600436106100cf5760003560e01c806368c160671161008c578063ab73cd2f11610066578063ab73cd2f146101ee578063bc30c041146101f8578063d188984014610214578063da8899c114610244576100cf565b806368c16067146101965780638bd87475146101b45780638da5cb5b146101d0576100cf565b806330be6fd3146100d45780634b6ad803146100f05780634b91b10a1461010e57806355da255a1461012a5780635c2e7caa1461015a578063684b1f8714610178575b600080fd5b6100ee60048036038101906100e99190611b91565b610262565b005b6100f86104b1565b6040516101059190611c7c565b60405180910390f35b61012860048036038101906101239190611de4565b61060f565b005b610144600480360381019061013f9190611e6f565b610713565b6040516101519190611fcd565b60405180910390f35b610162610962565b60405161016f919061212e565b60405180910390f35b610180610bd8565b60405161018d9190611c7c565b60405180910390f35b61019e610d36565b6040516101ab919061215f565b60405180910390f35b6101ce60048036038101906101c9919061217a565b610d9d565b005b6101d8610f6b565b6040516101e5919061215f565b60405180910390f35b6101f6610f91565b005b610212600480360381019061020d91906121d6565b6110e1565b005b61022e6004803603810190610229919061217a565b61115f565b60405161023b9190611fcd565b60405180910390f35b61024c611442565b6040516102599190611c7c565b60405180910390f35b60011515600660003373ffffffffffffffffffffffffffffffffffffffff1673ffffffffffffffffffffffffffffffffffffffff16815260200190815260200160002060009054906101000a900460ff161515146102f5576040517f08c379a00000000000000000000000000000000000000000000000000000000081526004016102ec906122be565b60405180910390fd5b6001600860008373ffffffffffffffffffffffffffffffffffffffff1673ffffffffffffffffffffffffffffffffffffffff16815260200190815260200160002060006101000a81548160ff021916908315150217905550600a60003373ffffffffffffffffffffffffffffffffffffffff1673ffffffffffffffffffffffffffffffffffffffff168152602001908152602001600020819080600181540180825580915050600190039060005260206000200160009091909190916101000a81548173ffffffffffffffffffffffffffffffffffffffff021916908373ffffffffffffffffffffffffffffffffffffffff16021790555033600760008373ffffffffffffffffffffffffffffffffffffffff1673ffffffffffffffffffffffffffffffffffffffff16815260200190815260200160002060006101000a81548173ffffffffffffffffffffffffffffffffffffffff021916908373ffffffffffffffffffffffffffffffffffffffff1602179055508073ffffffffffffffffffffffffffffffffffffffff167fcc36c734faf3e8e1867fdfc3adcdcab90ac2d8e24d1a4e6a06f4212045a4e75e60405160405180910390a250565b606060011515600860003373ffffffffffffffffffffffffffffffffffffffff1673ffffffffffffffffffffffffffffffffffffffff16815260200190815260200160002060009054906101000a900460ff16151514610546576040517f08c379a000000000000000000000000000000000000000000000000000000000815260040161053d9061232a565b60405180910390fd5b600d60003373ffffffffffffffffffffffffffffffffffffffff1673ffffffffffffffffffffffffffffffffffffffff16815260200190815260200160002080548060200260200160405190810160405280929190818152602001828054801561060557602002820191906000526020600020905b8160009054906101000a900473ffffffffffffffffffffffffffffffffffffffff1673ffffffffffffffffffffffffffffffffffffffff16815260200190600101908083116105bb575b5050505050905090565b60011515600860003373ffffffffffffffffffffffffffffffffffffffff1673ffffffffffffffffffffffffffffffffffffffff16815260200190815260200160002060009054906101000a900460ff161515146106a2576040517f08c379a000000000000000000000000000000000000000000000000000000000815260040161069990612396565b60405180910390fd5b82600b60008473ffffffffffffffffffffffffffffffffffffffff1673ffffffffffffffffffffffffffffffffffffffff168152602001908152602001600020826040516106f091906123f2565b9081526020016040518091039020600101908161070d9190612615565b50505050565b61071b611a94565b600b60003373ffffffffffffffffffffffffffffffffffffffff1673ffffffffffffffffffffffffffffffffffffffff1681526020019081526020016000208260405161076891906123f2565b90815260200160405180910390206040518060a001604052908160008201805461079190612438565b80601f01602080910402602001604051908101604052809291908181526020018280546107bd90612438565b801561080a5780601f106107df5761010080835404028352916020019161080a565b820191906000526020600020905b8154815290600101906020018083116107ed57829003601f168201915b5050505050815260200160018201805461082390612438565b80601f016020809104026020016040519081016040528092919081815260200182805461084f90612438565b801561089c5780601f106108715761010080835404028352916020019161089c565b820191906000526020600020905b81548152906001019060200180831161087f57829003601f168201915b50505050508152602001600282015481526020016003820160009054906101000a900473ffffffffffffffffffffffffffffffffffffffff1673ffffffffffffffffffffffffffffffffffffffff1673ffffffffffffffffffffffffffffffffffffffff1681526020016004820160009054906101000a900473ffffffffffffffffffffffffffffffffffffffff1673ffffffffffffffffffffffffffffffffffffffff1673ffffffffffffffffffffffffffffffffffffffff16815250509050919050565b6060600c60003373ffffffffffffffffffffffffffffffffffffffff1673ffffffffffffffffffffffffffffffffffffffff168152602001908152602001600020805480602002602001604051908101604052809291908181526020016000905b82821015610bcf57838290600052602060002090600502016040518060a00160405290816000820180546109f690612438565b80601f0160208091040260200160405190810160405280929190818152602001828054610a2290612438565b8015610a6f5780601f10610a4457610100808354040283529160200191610a6f565b820191906000526020600020905b815481529060010190602001808311610a5257829003601f168201915b50505050508152602001600182018054610a8890612438565b80601f0160208091040260200160405190810160405280929190818152602001828054610ab490612438565b8015610b015780601f10610ad657610100808354040283529160200191610b01565b820191906000526020600020905b815481529060010190602001808311610ae457829003601f168201915b50505050508152602001600282015481526020016003820160009054906101000a900473ffffffffffffffffffffffffffffffffffffffff1673ffffffffffffffffffffffffffffffffffffffff1673ffffffffffffffffffffffffffffffffffffffff1681526020016004820160009054906101000a900473ffffffffffffffffffffffffffffffffffffffff1673ffffffffffffffffffffffffffffffffffffffff1673ffffffffffffffffffffffffffffffffffffffff1681525050815260200190600101906109c3565b50505050905090565b606060011515600660003373ffffffffffffffffffffffffffffffffffffffff1673ffffffffffffffffffffffffffffffffffffffff16815260200190815260200160002060009054906101000a900460ff16151514610c6d576040517f08c379a0000000000000000000000000000000000000000000000000000000008152600401610c64906122be565b60405180910390fd5b600a60003373ffffffffffffffffffffffffffffffffffffffff1673ffffffffffffffffffffffffffffffffffffffff168152602001908152602001600020805480602002602001604051908101604052809291908181526020018280548015610d2c57602002820191906000526020600020905b8160009054906101000a900473ffffffffffffffffffffffffffffffffffffffff1673ffffffffffffffffffffffffffffffffffffffff1681526020019060010190808311610ce2575b5050505050905090565b6000600760003373ffffffffffffffffffffffffffffffffffffffff1673ffffffffffffffffffffffffffffffffffffffff16815260200190815260200160002060009054906101000a900473ffffffffffffffffffffffffffffffffffffffff16905090565b60011515600860003373ffffffffffffffffffffffffffffffffffffffff1673ffffffffffffffffffffffffffffffffffffffff16815260200190815260200160002060009054906101000a900460ff16151514610e30576040517f08c379a0000000000000000000000000000000000000000000000000000000008152600401610e2790612396565b60405180910390fd5b610e3a60016114d0565b610e42611aef565b82816000018190525081816020019073ffffffffffffffffffffffffffffffffffffffff16908173ffffffffffffffffffffffffffffffffffffffff16815250506001600960008473ffffffffffffffffffffffffffffffffffffffff1673ffffffffffffffffffffffffffffffffffffffff16815260200190815260200160002060006101000a81548160ff02191690831515021790555060038190806001815401808255809150506001900390600052602060002090600202016000909190919091506000820151816000019081610f1c9190612615565b5060208201518160010160006101000a81548173ffffffffffffffffffffffffffffffffffffffff021916908373ffffffffffffffffffffffffffffffffffffffff1602179055505050505050565b600560009054906101000a900473ffffffffffffffffffffffffffffffffffffffff1681565b60001515600660003373ffffffffffffffffffffffffffffffffffffffff1673ffffffffffffffffffffffffffffffffffffffff16815260200190815260200160002060009054906101000a900460ff16151514611024576040517f08c379a000000000000000000000000000000000000000000000000000000000815260040161101b90612733565b60405180910390fd5b6001600660003373ffffffffffffffffffffffffffffffffffffffff1673ffffffffffffffffffffffffffffffffffffffff16815260200190815260200160002060006101000a81548160ff0219169083151502179055506004339080600181540180825580915050600190039060005260206000200160009091909190916101000a81548173ffffffffffffffffffffffffffffffffffffffff021916908373ffffffffffffffffffffffffffffffffffffffff160217905550565b3273ffffffffffffffffffffffffffffffffffffffff163373ffffffffffffffffffffffffffffffffffffffff161461114f576040517f08c379a00000000000000000000000000000000000000000000000000000000081526004016111469061279f565b60405180910390fd5b61115a8383836114e6565b505050565b611167611a94565b60011515600860003373ffffffffffffffffffffffffffffffffffffffff1673ffffffffffffffffffffffffffffffffffffffff16815260200190815260200160002060009054906101000a900460ff161515146111fa576040517f08c379a00000000000000000000000000000000000000000000000000000000081526004016111f190612396565b60405180910390fd5b600b60008373ffffffffffffffffffffffffffffffffffffffff1673ffffffffffffffffffffffffffffffffffffffff1681526020019081526020016000208360405161124791906123f2565b90815260200160405180910390206040518060a001604052908160008201805461127090612438565b80601f016020809104026020016040519081016040528092919081815260200182805461129c90612438565b80156112e95780601f106112be576101008083540402835291602001916112e9565b820191906000526020600020905b8154815290600101906020018083116112cc57829003601f168201915b5050505050815260200160018201805461130290612438565b80601f016020809104026020016040519081016040528092919081815260200182805461132e90612438565b801561137b5780601f106113505761010080835404028352916020019161137b565b820191906000526020600020905b81548152906001019060200180831161135e57829003601f168201915b50505050508152602001600282015481526020016003820160009054906101000a900473ffffffffffffffffffffffffffffffffffffffff1673ffffffffffffffffffffffffffffffffffffffff1673ffffffffffffffffffffffffffffffffffffffff1681526020016004820160009054906101000a900473ffffffffffffffffffffffffffffffffffffffff1673ffffffffffffffffffffffffffffffffffffffff1673ffffffffffffffffffffffffffffffffffffffff1681525050905092915050565b606060048054806020026020016040519081016040528092919081815260200182805480156114c657602002820191906000526020600020905b8160009054906101000a900473ffffffffffffffffffffffffffffffffffffffff1673ffffffffffffffffffffffffffffffffffffffff168152602001906001019080831161147c575b5050505050905090565b6001816000016000828254019250508190555050565b60011515600860003373ffffffffffffffffffffffffffffffffffffffff1673ffffffffffffffffffffffffffffffffffffffff16815260200190815260200160002060009054906101000a900460ff16151514611579576040517f08c379a000000000000000000000000000000000000000000000000000000000815260040161157090612396565b60405180910390fd5b60011515600960008573ffffffffffffffffffffffffffffffffffffffff1673ffffffffffffffffffffffffffffffffffffffff16815260200190815260200160002060009054906101000a900460ff1615151461160c576040517f08c379a00000000000000000000000000000000000000000000000000000000081526004016116039061280b565b60405180910390fd5b61161660006114d0565b61161e611a94565b8281600001819052508181602001819052504281604001818152505033816060019073ffffffffffffffffffffffffffffffffffffffff16908173ffffffffffffffffffffffffffffffffffffffff168152505083816080019073ffffffffffffffffffffffffffffffffffffffff16908173ffffffffffffffffffffffffffffffffffffffff168152505080600b60008673ffffffffffffffffffffffffffffffffffffffff1673ffffffffffffffffffffffffffffffffffffffff168152602001908152602001600020846040516116f891906123f2565b9081526020016040518091039020600082015181600001908161171b9190612615565b5060208201518160010190816117319190612615565b506040820151816002015560608201518160030160006101000a81548173ffffffffffffffffffffffffffffffffffffffff021916908373ffffffffffffffffffffffffffffffffffffffff16021790555060808201518160040160006101000a81548173ffffffffffffffffffffffffffffffffffffffff021916908373ffffffffffffffffffffffffffffffffffffffff160217905550905050600d60003373ffffffffffffffffffffffffffffffffffffffff1673ffffffffffffffffffffffffffffffffffffffff168152602001908152602001600020849080600181540180825580915050600190039060005260206000200160009091909190916101000a81548173ffffffffffffffffffffffffffffffffffffffff021916908373ffffffffffffffffffffffffffffffffffffffff160217905550600c60008573ffffffffffffffffffffffffffffffffffffffff1673ffffffffffffffffffffffffffffffffffffffff16815260200190815260200160002081908060018154018082558091505060019003906000526020600020906005020160009091909190915060008201518160000190816118eb9190612615565b5060208201518160010190816119019190612615565b506040820151816002015560608201518160030160006101000a81548173ffffffffffffffffffffffffffffffffffffffff021916908373ffffffffffffffffffffffffffffffffffffffff16021790555060808201518160040160006101000a81548173ffffffffffffffffffffffffffffffffffffffff021916908373ffffffffffffffffffffffffffffffffffffffff1602179055505050600281908060018154018082558091505060019003906000526020600020906005020160009091909190915060008201518160000190816119dd9190612615565b5060208201518160010190816119f39190612615565b506040820151816002015560608201518160030160006101000a81548173ffffffffffffffffffffffffffffffffffffffff021916908373ffffffffffffffffffffffffffffffffffffffff16021790555060808201518160040160006101000a81548173ffffffffffffffffffffffffffffffffffffffff021916908373ffffffffffffffffffffffffffffffffffffffff160217905550505050505050565b6040518060a00160405280606081526020016060815260200160008152602001600073ffffffffffffffffffffffffffffffffffffffff168152602001600073ffffffffffffffffffffffffffffffffffffffff1681525090565b604051806040016040528060608152602001600073ffffffffffffffffffffffffffffffffffffffff1681525090565b6000604051905090565b600080fd5b600080fd5b600073ffffffffffffffffffffffffffffffffffffffff82169050919050565b6000611b5e82611b33565b9050919050565b611b6e81611b53565b8114611b7957600080fd5b50565b600081359050611b8b81611b65565b92915050565b600060208284031215611ba757611ba6611b29565b5b6000611bb584828501611b7c565b91505092915050565b600081519050919050565b600082825260208201905092915050565b6000819050602082019050919050565b611bf381611b53565b82525050565b6000611c058383611bea565b60208301905092915050565b6000602082019050919050565b6000611c2982611bbe565b611c338185611bc9565b9350611c3e83611bda565b8060005b83811015611c6f578151611c568882611bf9565b9750611c6183611c11565b925050600181019050611c42565b5085935050505092915050565b60006020820190508181036000830152611c968184611c1e565b905092915050565b600080fd5b600080fd5b6000601f19601f8301169050919050565b7f4e487b7100000000000000000000000000000000000000000000000000000000600052604160045260246000fd5b611cf182611ca8565b810181811067ffffffffffffffff82111715611d1057611d0f611cb9565b5b80604052505050565b6000611d23611b1f565b9050611d2f8282611ce8565b919050565b600067ffffffffffffffff821115611d4f57611d4e611cb9565b5b611d5882611ca8565b9050602081019050919050565b82818337600083830152505050565b6000611d87611d8284611d34565b611d19565b905082815260208101848484011115611da357611da2611ca3565b5b611dae848285611d65565b509392505050565b600082601f830112611dcb57611dca611c9e565b5b8135611ddb848260208601611d74565b91505092915050565b600080600060608486031215611dfd57611dfc611b29565b5b600084013567ffffffffffffffff811115611e1b57611e1a611b2e565b5b611e2786828701611db6565b9350506020611e3886828701611b7c565b925050604084013567ffffffffffffffff811115611e5957611e58611b2e565b5b611e6586828701611db6565b9150509250925092565b600060208284031215611e8557611e84611b29565b5b600082013567ffffffffffffffff811115611ea357611ea2611b2e565b5b611eaf84828501611db6565b91505092915050565b600081519050919050565b600082825260208201905092915050565b60005b83811015611ef2578082015181840152602081019050611ed7565b60008484015250505050565b6000611f0982611eb8565b611f138185611ec3565b9350611f23818560208601611ed4565b611f2c81611ca8565b840191505092915050565b6000819050919050565b611f4a81611f37565b82525050565b600060a0830160008301518482036000860152611f6d8282611efe565b91505060208301518482036020860152611f878282611efe565b9150506040830151611f9c6040860182611f41565b506060830151611faf6060860182611bea565b506080830151611fc26080860182611bea565b508091505092915050565b60006020820190508181036000830152611fe78184611f50565b905092915050565b600081519050919050565b600082825260208201905092915050565b6000819050602082019050919050565b600060a08301600083015184820360008601526120388282611efe565b915050602083015184820360208601526120528282611efe565b91505060408301516120676040860182611f41565b50606083015161207a6060860182611bea565b50608083015161208d6080860182611bea565b508091505092915050565b60006120a4838361201b565b905092915050565b6000602082019050919050565b60006120c482611fef565b6120ce8185611ffa565b9350836020820285016120e08561200b565b8060005b8581101561211c57848403895281516120fd8582612098565b9450612108836120ac565b925060208a019950506001810190506120e4565b50829750879550505050505092915050565b6000602082019050818103600083015261214881846120b9565b905092915050565b61215981611b53565b82525050565b60006020820190506121746000830184612150565b92915050565b6000806040838503121561219157612190611b29565b5b600083013567ffffffffffffffff8111156121af576121ae611b2e565b5b6121bb85828601611db6565b92505060206121cc85828601611b7c565b9150509250929050565b6000806000606084860312156121ef576121ee611b29565b5b60006121fd86828701611b7c565b935050602084013567ffffffffffffffff81111561221e5761221d611b2e565b5b61222a86828701611db6565b925050604084013567ffffffffffffffff81111561224b5761224a611b2e565b5b61225786828701611db6565b9150509250925092565b600082825260208201905092915050565b7f4e6f7420486f73706974616c0000000000000000000000000000000000000000600082015250565b60006122a8600c83612261565b91506122b382612272565b602082019050919050565b600060208201905081810360008301526122d78161229b565b9050919050565b7f4e6f7420446f63746f7200000000000000000000000000000000000000000000600082015250565b6000612314600a83612261565b915061231f826122de565b602082019050919050565b6000602082019050818103600083015261234381612307565b9050919050565b7f446f63746f72206e6f7420617070726f76656400000000000000000000000000600082015250565b6000612380601383612261565b915061238b8261234a565b602082019050919050565b600060208201905081810360008301526123af81612373565b9050919050565b600081905092915050565b60006123cc82611eb8565b6123d681856123b6565b93506123e6818560208601611ed4565b80840191505092915050565b60006123fe82846123c1565b915081905092915050565b7f4e487b7100000000000000000000000000000000000000000000000000000000600052602260045260246000fd5b6000600282049050600182168061245057607f821691505b60208210810361246357612462612409565b5b50919050565b60008190508160005260206000209050919050565b60006020601f8301049050919050565b600082821b905092915050565b6000600883026124cb7fffffffffffffffffffffffffffffffffffffffffffffffffffffffffffffffff8261248e565b6124d5868361248e565b95508019841693508086168417925050509392505050565b6000819050919050565b600061251261250d61250884611f37565b6124ed565b611f37565b9050919050565b6000819050919050565b61252c836124f7565b61254061253882612519565b84845461249b565b825550505050565b600090565b612555612548565b612560818484612523565b505050565b5b818110156125845761257960008261254d565b600181019050612566565b5050565b601f8211156125c95761259a81612469565b6125a38461247e565b810160208510156125b2578190505b6125c66125be8561247e565b830182612565565b50505b505050565b600082821c905092915050565b60006125ec600019846008026125ce565b1980831691505092915050565b600061260583836125db565b9150826002028217905092915050565b61261e82611eb8565b67ffffffffffffffff81111561263757612636611cb9565b5b6126418254612438565b61264c828285612588565b600060209050601f83116001811461267f576000841561266d578287015190505b61267785826125f9565b8655506126df565b601f19841661268d86612469565b60005b828110156126b557848901518255600182019150602085019450602081019050612690565b868310156126d257848901516126ce601f8916826125db565b8355505b6001600288020188555050505b505050505050565b7f416c726561647920617070726f76656400000000000000000000000000000000600082015250565b600061271d601083612261565b9150612728826126e7565b602082019050919050565b6000602082019050818103600083015261274c81612710565b9050919050565b7f4163636573732064656e69646500000000000000000000000000000000000000600082015250565b6000612789600d83612261565b915061279482612753565b602082019050919050565b600060208201905081810360008301526127b88161277c565b9050919050565b7f50617469656e74206e6f7420617070726f766564000000000000000000000000600082015250565b60006127f5601483612261565b9150612800826127bf565b602082019050919050565b60006020820190508181036000830152612824816127e8565b905091905056fea26469706673582212202a9383512af5caa4b31b092ed847d5a85adec531c187d4764625662ab5ac6b9264736f6c63430008110033",
  "linkReferences": {},
  "deployedLinkReferences": {}
}