{
  "_format": "hh-sol-artifact-1",
  "contractName": "Healthcare",
  "sourceName": "contracts/Healthcare.sol",
  "abi": [
    {
      "inputs": [],
      "stateMutability": "nonpayable",
      "type": "constructor"
    },
    {
      "anonymous": false,
      "inputs": [
        {
          "indexed": true,
          "internalType": "address",
          "name": "_doctor",
          "type": "address"
        }
      ],
      "name": "DoctorApproved",
      "type": "event"
    },
    {
      "inputs": [
        {
          "internalType": "string",
          "name": "_info",
          "type": "string"
        },
        {
          "internalType": "address",
          "name": "_address",
          "type": "address"
        }
      ],
      "name": "addPatient",
      "outputs": [],
      "stateMutability": "nonpayable",
      "type": "function"
    },
    {
      "inputs": [
        {
          "internalType": "address",
          "name": "_doctor",
          "type": "address"
        }
      ],
      "name": "allowDoctor",
      "outputs": [],
      "stateMutability": "nonpayable",
      "type": "function"
    },
    {
      "inputs": [],
      "name": "getAllMyPatients",
      "outputs": [
        {
          "internalType": "address[]",
          "name": "",
          "type": "address[]"
        }
      ],
      "stateMutability": "view",
      "type": "function"
    },
    {
      "inputs": [
        {
          "internalType": "string",
          "name": "_name",
          "type": "string"
        }
      ],
      "name": "getMyReportByName",
      "outputs": [
        {
          "components": [
            {
              "internalType": "string",
              "name": "name",
              "type": "string"
            },
            {
              "internalType": "string",
              "name": "prescription",
              "type": "string"
            },
            {
              "internalType": "uint256",
              "name": "time",
              "type": "uint256"
            },
            {
              "internalType": "address",
              "name": "doctor",
              "type": "address"
            },
            {
              "internalType": "address",
              "name": "patient",
              "type": "address"
            }
          ],
          "internalType": "struct Healthcare.Report",
          "name": "",
          "type": "tuple"
        }
      ],
      "stateMutability": "view",
      "type": "function"
    },
    {
      "inputs": [
        {
          "internalType": "string",
          "name": "_name",
          "type": "string"
        },
        {
          "internalType": "address",
          "name": "_patient",
          "type": "address"
        }
      ],
      "name": "getPatientReportByName",
      "outputs": [
        {
          "components": [
            {
              "internalType": "string",
              "name": "name",
              "type": "string"
            },
            {
              "internalType": "string",
              "name": "prescription",
              "type": "string"
            },
            {
              "internalType": "uint256",
              "name": "time",
              "type": "uint256"
            },
            {
              "internalType": "address",
              "name": "doctor",
              "type": "address"
            },
            {
              "internalType": "address",
              "name": "patient",
              "type": "address"
            }
          ],
          "internalType": "struct Healthcare.Report",
          "name": "",
          "type": "tuple"
        }
      ],
      "stateMutability": "view",
      "type": "function"
    },
    {
      "inputs": [],
      "name": "makeThisAddressHospital",
      "outputs": [],
      "stateMutability": "nonpayable",
      "type": "function"
    },
    {
      "inputs": [],
      "name": "owner",
      "outputs": [
        {
          "internalType": "address",
          "name": "",
          "type": "address"
        }
      ],
      "stateMutability": "view",
      "type": "function"
    },
    {
      "inputs": [
        {
          "internalType": "address",
          "name": "_to",
          "type": "address"
        },
        {
          "internalType": "string",
          "name": "_reportName",
          "type": "string"
        },
        {
          "internalType": "string",
          "name": "_prescription",
          "type": "string"
        }
      ],
      "name": "sendReport",
      "outputs": [],
      "stateMutability": "nonpayable",
      "type": "function"
    },
    {
      "inputs": [],
      "name": "showAllDoctors",
      "outputs": [
        {
          "internalType": "address[]",
          "name": "",
          "type": "address[]"
        }
      ],
      "stateMutability": "view",
      "type": "function"
    },
    {
      "inputs": [],
      "name": "showAllHospitals",
      "outputs": [
        {
          "internalType": "address[]",
          "name": "",
          "type": "address[]"
        }
      ],
      "stateMutability": "view",
      "type": "function"
    },
    {
      "inputs": [],
      "name": "showMyReports",
      "outputs": [
        {
          "components": [
            {
              "internalType": "string",
              "name": "name",
              "type": "string"
            },
            {
              "internalType": "string",
              "name": "prescription",
              "type": "string"
            },
            {
              "internalType": "uint256",
              "name": "time",
              "type": "uint256"
            },
            {
              "internalType": "address",
              "name": "doctor",
              "type": "address"
            },
            {
              "internalType": "address",
              "name": "patient",
              "type": "address"
            }
          ],
          "internalType": "struct Healthcare.Report[]",
          "name": "",
          "type": "tuple[]"
        }
      ],
      "stateMutability": "view",
      "type": "function"
    },
    {
      "inputs": [
        {
          "internalType": "string",
          "name": "_prescription",
          "type": "string"
        },
        {
          "internalType": "address",
          "name": "_patient",
          "type": "address"
        },
        {
          "internalType": "string",
          "name": "_name",
          "type": "string"
        }
      ],
      "name": "updateReport",
      "outputs": [],
      "stateMutability": "nonpayable",
      "type": "function"
    }
  ],
  "bytecode": "0x608060405234801561001057600080fd5b5033600560006101000a81548173ffffffffffffffffffffffffffffffffffffffff021916908373ffffffffffffffffffffffffffffffffffffffff160217905550612743806100616000396000f3fe608060405234801561001057600080fd5b50600436106100b45760003560e01c80638bd87475116100715780638bd874751461017b5780638da5cb5b14610197578063ab73cd2f146101b5578063bc30c041146101bf578063d1889840146101db578063da8899c11461020b576100b4565b806330be6fd3146100b95780634b6ad803146100d55780634b91b10a146100f357806355da255a1461010f5780635c2e7caa1461013f578063684b1f871461015d575b600080fd5b6100d360048036038101906100ce9190611a73565b610229565b005b6100dd6103fa565b6040516100ea9190611b5e565b60405180910390f35b61010d60048036038101906101089190611cc6565b610558565b005b61012960048036038101906101249190611d51565b61065c565b6040516101369190611eaf565b60405180910390f35b6101476108ab565b6040516101549190612010565b60405180910390f35b610165610b21565b6040516101729190611b5e565b60405180910390f35b61019560048036038101906101909190612032565b610c7f565b005b61019f610e4d565b6040516101ac919061209d565b60405180910390f35b6101bd610e73565b005b6101d960048036038101906101d491906120b8565b610fc3565b005b6101f560048036038101906101f09190612032565b611041565b6040516102029190611eaf565b60405180910390f35b610213611324565b6040516102209190611b5e565b60405180910390f35b60011515600660003373ffffffffffffffffffffffffffffffffffffffff1673ffffffffffffffffffffffffffffffffffffffff16815260200190815260200160002060009054906101000a900460ff161515146102bc576040517f08c379a00000000000000000000000000000000000000000000000000000000081526004016102b3906121a0565b60405180910390fd5b6001600760008373ffffffffffffffffffffffffffffffffffffffff1673ffffffffffffffffffffffffffffffffffffffff16815260200190815260200160002060006101000a81548160ff021916908315150217905550600960003373ffffffffffffffffffffffffffffffffffffffff1673ffffffffffffffffffffffffffffffffffffffff168152602001908152602001600020819080600181540180825580915050600190039060005260206000200160009091909190916101000a81548173ffffffffffffffffffffffffffffffffffffffff021916908373ffffffffffffffffffffffffffffffffffffffff1602179055508073ffffffffffffffffffffffffffffffffffffffff167fcc36c734faf3e8e1867fdfc3adcdcab90ac2d8e24d1a4e6a06f4212045a4e75e60405160405180910390a250565b606060011515600760003373ffffffffffffffffffffffffffffffffffffffff1673ffffffffffffffffffffffffffffffffffffffff16815260200190815260200160002060009054906101000a900460ff1615151461048f576040517f08c379a00000000000000000000000000000000000000000000000000000000081526004016104869061220c565b60405180910390fd5b600c60003373ffffffffffffffffffffffffffffffffffffffff1673ffffffffffffffffffffffffffffffffffffffff16815260200190815260200160002080548060200260200160405190810160405280929190818152602001828054801561054e57602002820191906000526020600020905b8160009054906101000a900473ffffffffffffffffffffffffffffffffffffffff1673ffffffffffffffffffffffffffffffffffffffff1681526020019060010190808311610504575b5050505050905090565b60011515600760003373ffffffffffffffffffffffffffffffffffffffff1673ffffffffffffffffffffffffffffffffffffffff16815260200190815260200160002060009054906101000a900460ff161515146105eb576040517f08c379a00000000000000000000000000000000000000000000000000000000081526004016105e290612278565b60405180910390fd5b82600a60008473ffffffffffffffffffffffffffffffffffffffff1673ffffffffffffffffffffffffffffffffffffffff1681526020019081526020016000208260405161063991906122d4565b9081526020016040518091039020600101908161065691906124f7565b50505050565b610664611976565b600a60003373ffffffffffffffffffffffffffffffffffffffff1673ffffffffffffffffffffffffffffffffffffffff168152602001908152602001600020826040516106b191906122d4565b90815260200160405180910390206040518060a00160405290816000820180546106da9061231a565b80601f01602080910402602001604051908101604052809291908181526020018280546107069061231a565b80156107535780601f1061072857610100808354040283529160200191610753565b820191906000526020600020905b81548152906001019060200180831161073657829003601f168201915b5050505050815260200160018201805461076c9061231a565b80601f01602080910402602001604051908101604052809291908181526020018280546107989061231a565b80156107e55780601f106107ba576101008083540402835291602001916107e5565b820191906000526020600020905b8154815290600101906020018083116107c857829003601f168201915b50505050508152602001600282015481526020016003820160009054906101000a900473ffffffffffffffffffffffffffffffffffffffff1673ffffffffffffffffffffffffffffffffffffffff1673ffffffffffffffffffffffffffffffffffffffff1681526020016004820160009054906101000a900473ffffffffffffffffffffffffffffffffffffffff1673ffffffffffffffffffffffffffffffffffffffff1673ffffffffffffffffffffffffffffffffffffffff16815250509050919050565b6060600b60003373ffffffffffffffffffffffffffffffffffffffff1673ffffffffffffffffffffffffffffffffffffffff168152602001908152602001600020805480602002602001604051908101604052809291908181526020016000905b82821015610b1857838290600052602060002090600502016040518060a001604052908160008201805461093f9061231a565b80601f016020809104026020016040519081016040528092919081815260200182805461096b9061231a565b80156109b85780601f1061098d576101008083540402835291602001916109b8565b820191906000526020600020905b81548152906001019060200180831161099b57829003601f168201915b505050505081526020016001820180546109d19061231a565b80601f01602080910402602001604051908101604052809291908181526020018280546109fd9061231a565b8015610a4a5780601f10610a1f57610100808354040283529160200191610a4a565b820191906000526020600020905b815481529060010190602001808311610a2d57829003601f168201915b50505050508152602001600282015481526020016003820160009054906101000a900473ffffffffffffffffffffffffffffffffffffffff1673ffffffffffffffffffffffffffffffffffffffff1673ffffffffffffffffffffffffffffffffffffffff1681526020016004820160009054906101000a900473ffffffffffffffffffffffffffffffffffffffff1673ffffffffffffffffffffffffffffffffffffffff1673ffffffffffffffffffffffffffffffffffffffff16815250508152602001906001019061090c565b50505050905090565b606060011515600660003373ffffffffffffffffffffffffffffffffffffffff1673ffffffffffffffffffffffffffffffffffffffff16815260200190815260200160002060009054906101000a900460ff16151514610bb6576040517f08c379a0000000000000000000000000000000000000000000000000000000008152600401610bad906121a0565b60405180910390fd5b600960003373ffffffffffffffffffffffffffffffffffffffff1673ffffffffffffffffffffffffffffffffffffffff168152602001908152602001600020805480602002602001604051908101604052809291908181526020018280548015610c7557602002820191906000526020600020905b8160009054906101000a900473ffffffffffffffffffffffffffffffffffffffff1673ffffffffffffffffffffffffffffffffffffffff1681526020019060010190808311610c2b575b5050505050905090565b60011515600760003373ffffffffffffffffffffffffffffffffffffffff1673ffffffffffffffffffffffffffffffffffffffff16815260200190815260200160002060009054906101000a900460ff16151514610d12576040517f08c379a0000000000000000000000000000000000000000000000000000000008152600401610d0990612278565b60405180910390fd5b610d1c60016113b2565b610d246119d1565b82816000018190525081816020019073ffffffffffffffffffffffffffffffffffffffff16908173ffffffffffffffffffffffffffffffffffffffff16815250506001600860008473ffffffffffffffffffffffffffffffffffffffff1673ffffffffffffffffffffffffffffffffffffffff16815260200190815260200160002060006101000a81548160ff02191690831515021790555060038190806001815401808255809150506001900390600052602060002090600202016000909190919091506000820151816000019081610dfe91906124f7565b5060208201518160010160006101000a81548173ffffffffffffffffffffffffffffffffffffffff021916908373ffffffffffffffffffffffffffffffffffffffff1602179055505050505050565b600560009054906101000a900473ffffffffffffffffffffffffffffffffffffffff1681565b60001515600660003373ffffffffffffffffffffffffffffffffffffffff1673ffffffffffffffffffffffffffffffffffffffff16815260200190815260200160002060009054906101000a900460ff16151514610f06576040517f08c379a0000000000000000000000000000000000000000000000000000000008152600401610efd90612615565b60405180910390fd5b6001600660003373ffffffffffffffffffffffffffffffffffffffff1673ffffffffffffffffffffffffffffffffffffffff16815260200190815260200160002060006101000a81548160ff0219169083151502179055506004339080600181540180825580915050600190039060005260206000200160009091909190916101000a81548173ffffffffffffffffffffffffffffffffffffffff021916908373ffffffffffffffffffffffffffffffffffffffff160217905550565b3273ffffffffffffffffffffffffffffffffffffffff163373ffffffffffffffffffffffffffffffffffffffff1614611031576040517f08c379a000000000000000000000000000000000000000000000000000000000815260040161102890612681565b60405180910390fd5b61103c8383836113c8565b505050565b611049611976565b60011515600760003373ffffffffffffffffffffffffffffffffffffffff1673ffffffffffffffffffffffffffffffffffffffff16815260200190815260200160002060009054906101000a900460ff161515146110dc576040517f08c379a00000000000000000000000000000000000000000000000000000000081526004016110d390612278565b60405180910390fd5b600a60008373ffffffffffffffffffffffffffffffffffffffff1673ffffffffffffffffffffffffffffffffffffffff1681526020019081526020016000208360405161112991906122d4565b90815260200160405180910390206040518060a00160405290816000820180546111529061231a565b80601f016020809104026020016040519081016040528092919081815260200182805461117e9061231a565b80156111cb5780601f106111a0576101008083540402835291602001916111cb565b820191906000526020600020905b8154815290600101906020018083116111ae57829003601f168201915b505050505081526020016001820180546111e49061231a565b80601f01602080910402602001604051908101604052809291908181526020018280546112109061231a565b801561125d5780601f106112325761010080835404028352916020019161125d565b820191906000526020600020905b81548152906001019060200180831161124057829003601f168201915b50505050508152602001600282015481526020016003820160009054906101000a900473ffffffffffffffffffffffffffffffffffffffff1673ffffffffffffffffffffffffffffffffffffffff1673ffffffffffffffffffffffffffffffffffffffff1681526020016004820160009054906101000a900473ffffffffffffffffffffffffffffffffffffffff1673ffffffffffffffffffffffffffffffffffffffff1673ffffffffffffffffffffffffffffffffffffffff1681525050905092915050565b606060048054806020026020016040519081016040528092919081815260200182805480156113a857602002820191906000526020600020905b8160009054906101000a900473ffffffffffffffffffffffffffffffffffffffff1673ffffffffffffffffffffffffffffffffffffffff168152602001906001019080831161135e575b5050505050905090565b6001816000016000828254019250508190555050565b60011515600760003373ffffffffffffffffffffffffffffffffffffffff1673ffffffffffffffffffffffffffffffffffffffff16815260200190815260200160002060009054906101000a900460ff1615151461145b576040517f08c379a000000000000000000000000000000000000000000000000000000000815260040161145290612278565b60405180910390fd5b60011515600860008573ffffffffffffffffffffffffffffffffffffffff1673ffffffffffffffffffffffffffffffffffffffff16815260200190815260200160002060009054906101000a900460ff161515146114ee576040517f08c379a00000000000000000000000000000000000000000000000000000000081526004016114e5906126ed565b60405180910390fd5b6114f860006113b2565b611500611976565b8281600001819052508181602001819052504281604001818152505033816060019073ffffffffffffffffffffffffffffffffffffffff16908173ffffffffffffffffffffffffffffffffffffffff168152505083816080019073ffffffffffffffffffffffffffffffffffffffff16908173ffffffffffffffffffffffffffffffffffffffff168152505080600a60008673ffffffffffffffffffffffffffffffffffffffff1673ffffffffffffffffffffffffffffffffffffffff168152602001908152602001600020846040516115da91906122d4565b908152602001604051809103902060008201518160000190816115fd91906124f7565b50602082015181600101908161161391906124f7565b506040820151816002015560608201518160030160006101000a81548173ffffffffffffffffffffffffffffffffffffffff021916908373ffffffffffffffffffffffffffffffffffffffff16021790555060808201518160040160006101000a81548173ffffffffffffffffffffffffffffffffffffffff021916908373ffffffffffffffffffffffffffffffffffffffff160217905550905050600c60003373ffffffffffffffffffffffffffffffffffffffff1673ffffffffffffffffffffffffffffffffffffffff168152602001908152602001600020849080600181540180825580915050600190039060005260206000200160009091909190916101000a81548173ffffffffffffffffffffffffffffffffffffffff021916908373ffffffffffffffffffffffffffffffffffffffff160217905550600b60008573ffffffffffffffffffffffffffffffffffffffff1673ffffffffffffffffffffffffffffffffffffffff16815260200190815260200160002081908060018154018082558091505060019003906000526020600020906005020160009091909190915060008201518160000190816117cd91906124f7565b5060208201518160010190816117e391906124f7565b506040820151816002015560608201518160030160006101000a81548173ffffffffffffffffffffffffffffffffffffffff021916908373ffffffffffffffffffffffffffffffffffffffff16021790555060808201518160040160006101000a81548173ffffffffffffffffffffffffffffffffffffffff021916908373ffffffffffffffffffffffffffffffffffffffff1602179055505050600281908060018154018082558091505060019003906000526020600020906005020160009091909190915060008201518160000190816118bf91906124f7565b5060208201518160010190816118d591906124f7565b506040820151816002015560608201518160030160006101000a81548173ffffffffffffffffffffffffffffffffffffffff021916908373ffffffffffffffffffffffffffffffffffffffff16021790555060808201518160040160006101000a81548173ffffffffffffffffffffffffffffffffffffffff021916908373ffffffffffffffffffffffffffffffffffffffff160217905550505050505050565b6040518060a00160405280606081526020016060815260200160008152602001600073ffffffffffffffffffffffffffffffffffffffff168152602001600073ffffffffffffffffffffffffffffffffffffffff1681525090565b604051806040016040528060608152602001600073ffffffffffffffffffffffffffffffffffffffff1681525090565b6000604051905090565b600080fd5b600080fd5b600073ffffffffffffffffffffffffffffffffffffffff82169050919050565b6000611a4082611a15565b9050919050565b611a5081611a35565b8114611a5b57600080fd5b50565b600081359050611a6d81611a47565b92915050565b600060208284031215611a8957611a88611a0b565b5b6000611a9784828501611a5e565b91505092915050565b600081519050919050565b600082825260208201905092915050565b6000819050602082019050919050565b611ad581611a35565b82525050565b6000611ae78383611acc565b60208301905092915050565b6000602082019050919050565b6000611b0b82611aa0565b611b158185611aab565b9350611b2083611abc565b8060005b83811015611b51578151611b388882611adb565b9750611b4383611af3565b925050600181019050611b24565b5085935050505092915050565b60006020820190508181036000830152611b788184611b00565b905092915050565b600080fd5b600080fd5b6000601f19601f8301169050919050565b7f4e487b7100000000000000000000000000000000000000000000000000000000600052604160045260246000fd5b611bd382611b8a565b810181811067ffffffffffffffff82111715611bf257611bf1611b9b565b5b80604052505050565b6000611c05611a01565b9050611c118282611bca565b919050565b600067ffffffffffffffff821115611c3157611c30611b9b565b5b611c3a82611b8a565b9050602081019050919050565b82818337600083830152505050565b6000611c69611c6484611c16565b611bfb565b905082815260208101848484011115611c8557611c84611b85565b5b611c90848285611c47565b509392505050565b600082601f830112611cad57611cac611b80565b5b8135611cbd848260208601611c56565b91505092915050565b600080600060608486031215611cdf57611cde611a0b565b5b600084013567ffffffffffffffff811115611cfd57611cfc611a10565b5b611d0986828701611c98565b9350506020611d1a86828701611a5e565b925050604084013567ffffffffffffffff811115611d3b57611d3a611a10565b5b611d4786828701611c98565b9150509250925092565b600060208284031215611d6757611d66611a0b565b5b600082013567ffffffffffffffff811115611d8557611d84611a10565b5b611d9184828501611c98565b91505092915050565b600081519050919050565b600082825260208201905092915050565b60005b83811015611dd4578082015181840152602081019050611db9565b60008484015250505050565b6000611deb82611d9a565b611df58185611da5565b9350611e05818560208601611db6565b611e0e81611b8a565b840191505092915050565b6000819050919050565b611e2c81611e19565b82525050565b600060a0830160008301518482036000860152611e4f8282611de0565b91505060208301518482036020860152611e698282611de0565b9150506040830151611e7e6040860182611e23565b506060830151611e916060860182611acc565b506080830151611ea46080860182611acc565b508091505092915050565b60006020820190508181036000830152611ec98184611e32565b905092915050565b600081519050919050565b600082825260208201905092915050565b6000819050602082019050919050565b600060a0830160008301518482036000860152611f1a8282611de0565b91505060208301518482036020860152611f348282611de0565b9150506040830151611f496040860182611e23565b506060830151611f5c6060860182611acc565b506080830151611f6f6080860182611acc565b508091505092915050565b6000611f868383611efd565b905092915050565b6000602082019050919050565b6000611fa682611ed1565b611fb08185611edc565b935083602082028501611fc285611eed565b8060005b85811015611ffe5784840389528151611fdf8582611f7a565b9450611fea83611f8e565b925060208a01995050600181019050611fc6565b50829750879550505050505092915050565b6000602082019050818103600083015261202a8184611f9b565b905092915050565b6000806040838503121561204957612048611a0b565b5b600083013567ffffffffffffffff81111561206757612066611a10565b5b61207385828601611c98565b925050602061208485828601611a5e565b9150509250929050565b61209781611a35565b82525050565b60006020820190506120b2600083018461208e565b92915050565b6000806000606084860312156120d1576120d0611a0b565b5b60006120df86828701611a5e565b935050602084013567ffffffffffffffff811115612100576120ff611a10565b5b61210c86828701611c98565b925050604084013567ffffffffffffffff81111561212d5761212c611a10565b5b61213986828701611c98565b9150509250925092565b600082825260208201905092915050565b7f4e6f7420486f73706974616c0000000000000000000000000000000000000000600082015250565b600061218a600c83612143565b915061219582612154565b602082019050919050565b600060208201905081810360008301526121b98161217d565b9050919050565b7f4e6f7420446f63746f7200000000000000000000000000000000000000000000600082015250565b60006121f6600a83612143565b9150612201826121c0565b602082019050919050565b60006020820190508181036000830152612225816121e9565b9050919050565b7f446f63746f72206e6f7420617070726f76656400000000000000000000000000600082015250565b6000612262601383612143565b915061226d8261222c565b602082019050919050565b6000602082019050818103600083015261229181612255565b9050919050565b600081905092915050565b60006122ae82611d9a565b6122b88185612298565b93506122c8818560208601611db6565b80840191505092915050565b60006122e082846122a3565b915081905092915050565b7f4e487b7100000000000000000000000000000000000000000000000000000000600052602260045260246000fd5b6000600282049050600182168061233257607f821691505b602082108103612345576123446122eb565b5b50919050565b60008190508160005260206000209050919050565b60006020601f8301049050919050565b600082821b905092915050565b6000600883026123ad7fffffffffffffffffffffffffffffffffffffffffffffffffffffffffffffffff82612370565b6123b78683612370565b95508019841693508086168417925050509392505050565b6000819050919050565b60006123f46123ef6123ea84611e19565b6123cf565b611e19565b9050919050565b6000819050919050565b61240e836123d9565b61242261241a826123fb565b84845461237d565b825550505050565b600090565b61243761242a565b612442818484612405565b505050565b5b818110156124665761245b60008261242f565b600181019050612448565b5050565b601f8211156124ab5761247c8161234b565b61248584612360565b81016020851015612494578190505b6124a86124a085612360565b830182612447565b50505b505050565b600082821c905092915050565b60006124ce600019846008026124b0565b1980831691505092915050565b60006124e783836124bd565b9150826002028217905092915050565b61250082611d9a565b67ffffffffffffffff81111561251957612518611b9b565b5b612523825461231a565b61252e82828561246a565b600060209050601f831160018114612561576000841561254f578287015190505b61255985826124db565b8655506125c1565b601f19841661256f8661234b565b60005b8281101561259757848901518255600182019150602085019450602081019050612572565b868310156125b457848901516125b0601f8916826124bd565b8355505b6001600288020188555050505b505050505050565b7f416c726561647920617070726f76656400000000000000000000000000000000600082015250565b60006125ff601083612143565b915061260a826125c9565b602082019050919050565b6000602082019050818103600083015261262e816125f2565b9050919050565b7f4163636573732064656e69646500000000000000000000000000000000000000600082015250565b600061266b600d83612143565b915061267682612635565b602082019050919050565b6000602082019050818103600083015261269a8161265e565b9050919050565b7f50617469656e74206e6f7420617070726f766564000000000000000000000000600082015250565b60006126d7601483612143565b91506126e2826126a1565b602082019050919050565b60006020820190508181036000830152612706816126ca565b905091905056fea2646970667358221220b916b12a01dd31ce03792544bc2c9de964a339f53a45ab1692cf631d7c37887964736f6c63430008110033",
  "linkReferences": {},
  "deployedLinkReferences": {}
}