{
  "_format": "hh-sol-artifact-1",
  "contractName": "Healthcare",
  "sourceName": "contracts/Healthcare.sol",
  "abi": [
    {
      "inputs": [],
      "stateMutability": "nonpayable",
      "type": "constructor"
    },
    {
      "anonymous": false,
      "inputs": [
        {
          "indexed": true,
          "internalType": "address",
          "name": "_doctor",
          "type": "address"
        }
      ],
      "name": "DoctorApproved",
      "type": "event"
    },
    {
      "inputs": [
        {
          "internalType": "string",
          "name": "_info",
          "type": "string"
        },
        {
          "internalType": "address",
          "name": "_address",
          "type": "address"
        }
      ],
      "name": "addPatient",
      "outputs": [],
      "stateMutability": "nonpayable",
      "type": "function"
    },
    {
      "inputs": [
        {
          "internalType": "address",
          "name": "_doctor",
          "type": "address"
        }
      ],
      "name": "allowDoctor",
      "outputs": [],
      "stateMutability": "nonpayable",
      "type": "function"
    },
    {
      "inputs": [],
      "name": "getAllMyAddedPatient",
      "outputs": [
        {
          "internalType": "address[]",
          "name": "",
          "type": "address[]"
        }
      ],
      "stateMutability": "view",
      "type": "function"
    },
    {
      "inputs": [],
      "name": "getAllMyPatients",
      "outputs": [
        {
          "internalType": "address[]",
          "name": "",
          "type": "address[]"
        }
      ],
      "stateMutability": "view",
      "type": "function"
    },
    {
      "inputs": [
        {
          "internalType": "string",
          "name": "_name",
          "type": "string"
        }
      ],
      "name": "getMyReportByName",
      "outputs": [
        {
          "components": [
            {
              "internalType": "string",
              "name": "name",
              "type": "string"
            },
            {
              "internalType": "string",
              "name": "prescription",
              "type": "string"
            },
            {
              "internalType": "uint256",
              "name": "time",
              "type": "uint256"
            },
            {
              "internalType": "address",
              "name": "doctor",
              "type": "address"
            },
            {
              "internalType": "address",
              "name": "patient",
              "type": "address"
            }
          ],
          "internalType": "struct Healthcare.Report",
          "name": "",
          "type": "tuple"
        }
      ],
      "stateMutability": "view",
      "type": "function"
    },
    {
      "inputs": [
        {
          "internalType": "string",
          "name": "_name",
          "type": "string"
        },
        {
          "internalType": "address",
          "name": "_patient",
          "type": "address"
        }
      ],
      "name": "getPatientReportByName",
      "outputs": [
        {
          "components": [
            {
              "internalType": "string",
              "name": "name",
              "type": "string"
            },
            {
              "internalType": "string",
              "name": "prescription",
              "type": "string"
            },
            {
              "internalType": "uint256",
              "name": "time",
              "type": "uint256"
            },
            {
              "internalType": "address",
              "name": "doctor",
              "type": "address"
            },
            {
              "internalType": "address",
              "name": "patient",
              "type": "address"
            }
          ],
          "internalType": "struct Healthcare.Report",
          "name": "",
          "type": "tuple"
        }
      ],
      "stateMutability": "view",
      "type": "function"
    },
    {
      "inputs": [
        {
          "internalType": "address",
          "name": "_address",
          "type": "address"
        }
      ],
      "name": "getReportByDoctorAddress",
      "outputs": [
        {
          "components": [
            {
              "internalType": "string",
              "name": "name",
              "type": "string"
            },
            {
              "internalType": "string",
              "name": "prescription",
              "type": "string"
            },
            {
              "internalType": "uint256",
              "name": "time",
              "type": "uint256"
            },
            {
              "internalType": "address",
              "name": "doctor",
              "type": "address"
            },
            {
              "internalType": "address",
              "name": "patient",
              "type": "address"
            }
          ],
          "internalType": "struct Healthcare.Report[]",
          "name": "",
          "type": "tuple[]"
        }
      ],
      "stateMutability": "view",
      "type": "function"
    },
    {
      "inputs": [],
      "name": "makeThisAddressHospital",
      "outputs": [],
      "stateMutability": "nonpayable",
      "type": "function"
    },
    {
      "inputs": [],
      "name": "owner",
      "outputs": [
        {
          "internalType": "address",
          "name": "",
          "type": "address"
        }
      ],
      "stateMutability": "view",
      "type": "function"
    },
    {
      "inputs": [
        {
          "internalType": "address",
          "name": "_to",
          "type": "address"
        },
        {
          "internalType": "string",
          "name": "_reportName",
          "type": "string"
        },
        {
          "internalType": "string",
          "name": "_prescription",
          "type": "string"
        }
      ],
      "name": "sendReport",
      "outputs": [],
      "stateMutability": "nonpayable",
      "type": "function"
    },
    {
      "inputs": [],
      "name": "showAllDoctors",
      "outputs": [
        {
          "internalType": "address[]",
          "name": "",
          "type": "address[]"
        }
      ],
      "stateMutability": "view",
      "type": "function"
    },
    {
      "inputs": [],
      "name": "showAllHospitals",
      "outputs": [
        {
          "internalType": "address[]",
          "name": "",
          "type": "address[]"
        }
      ],
      "stateMutability": "view",
      "type": "function"
    },
    {
      "inputs": [],
      "name": "showMyHospital",
      "outputs": [
        {
          "internalType": "address",
          "name": "",
          "type": "address"
        }
      ],
      "stateMutability": "view",
      "type": "function"
    },
    {
      "inputs": [],
      "name": "showMyReports",
      "outputs": [
        {
          "components": [
            {
              "internalType": "string",
              "name": "name",
              "type": "string"
            },
            {
              "internalType": "string",
              "name": "prescription",
              "type": "string"
            },
            {
              "internalType": "uint256",
              "name": "time",
              "type": "uint256"
            },
            {
              "internalType": "address",
              "name": "doctor",
              "type": "address"
            },
            {
              "internalType": "address",
              "name": "patient",
              "type": "address"
            }
          ],
          "internalType": "struct Healthcare.Report[]",
          "name": "",
          "type": "tuple[]"
        }
      ],
      "stateMutability": "view",
      "type": "function"
    },
    {
      "inputs": [
        {
          "internalType": "string",
          "name": "_prescription",
          "type": "string"
        },
        {
          "internalType": "address",
          "name": "_patient",
          "type": "address"
        },
        {
          "internalType": "string",
          "name": "_name",
          "type": "string"
        }
      ],
      "name": "updateReport",
      "outputs": [],
      "stateMutability": "nonpayable",
      "type": "function"
    }
  ],
  "bytecode": "0x608060405234801561001057600080fd5b5033600560006101000a81548173ffffffffffffffffffffffffffffffffffffffff021916908373ffffffffffffffffffffffffffffffffffffffff160217905550612c5c806100616000396000f3fe608060405234801561001057600080fd5b50600436106100f55760003560e01c806368c1606711610097578063ab73cd2f11610066578063ab73cd2f14610262578063bc30c0411461026c578063d188984014610288578063da8899c1146102b8576100f5565b806368c16067146101ec57806375ecf7811461020a5780638bd87475146102285780638da5cb5b14610244576100f5565b80634b91b10a116100d35780634b91b10a1461016457806355da255a146101805780635c2e7caa146101b0578063684b1f87146101ce576100f5565b806330be6fd3146100fa5780634a345088146101165780634b6ad80314610146575b600080fd5b610114600480360381019061010f9190612200565b6102d6565b005b610130600480360381019061012b9190612200565b610525565b60405161013d919061242d565b60405180910390f35b61014e61079d565b60405161015b91906124fe565b60405180910390f35b61017e60048036038101906101799190612655565b6108fb565b005b61019a600480360381019061019591906126e0565b610a06565b6040516101a791906127a6565b60405180910390f35b6101b8610c55565b6040516101c5919061242d565b60405180910390f35b6101d6610ecb565b6040516101e391906124fe565b60405180910390f35b6101f4611029565b60405161020191906127d7565b60405180910390f35b610212611090565b60405161021f91906124fe565b60405180910390f35b610242600480360381019061023d91906127f2565b61115b565b005b61024c6113d0565b60405161025991906127d7565b60405180910390f35b61026a6113f6565b005b6102866004803603810190610281919061284e565b611546565b005b6102a2600480360381019061029d91906127f2565b6115c4565b6040516102af91906127a6565b60405180910390f35b6102c06118a7565b6040516102cd91906124fe565b60405180910390f35b60011515600660003373ffffffffffffffffffffffffffffffffffffffff1673ffffffffffffffffffffffffffffffffffffffff16815260200190815260200160002060009054906101000a900460ff16151514610369576040517f08c379a000000000000000000000000000000000000000000000000000000000815260040161036090612936565b60405180910390fd5b6001600860008373ffffffffffffffffffffffffffffffffffffffff1673ffffffffffffffffffffffffffffffffffffffff16815260200190815260200160002060006101000a81548160ff021916908315150217905550600a60003373ffffffffffffffffffffffffffffffffffffffff1673ffffffffffffffffffffffffffffffffffffffff168152602001908152602001600020819080600181540180825580915050600190039060005260206000200160009091909190916101000a81548173ffffffffffffffffffffffffffffffffffffffff021916908373ffffffffffffffffffffffffffffffffffffffff16021790555033600760008373ffffffffffffffffffffffffffffffffffffffff1673ffffffffffffffffffffffffffffffffffffffff16815260200190815260200160002060006101000a81548173ffffffffffffffffffffffffffffffffffffffff021916908373ffffffffffffffffffffffffffffffffffffffff1602179055508073ffffffffffffffffffffffffffffffffffffffff167fcc36c734faf3e8e1867fdfc3adcdcab90ac2d8e24d1a4e6a06f4212045a4e75e60405160405180910390a250565b6060600f60008373ffffffffffffffffffffffffffffffffffffffff1673ffffffffffffffffffffffffffffffffffffffff168152602001908152602001600020805480602002602001604051908101604052809291908181526020016000905b8282101561079257838290600052602060002090600502016040518060a00160405290816000820180546105b990612985565b80601f01602080910402602001604051908101604052809291908181526020018280546105e590612985565b80156106325780601f1061060757610100808354040283529160200191610632565b820191906000526020600020905b81548152906001019060200180831161061557829003601f168201915b5050505050815260200160018201805461064b90612985565b80601f016020809104026020016040519081016040528092919081815260200182805461067790612985565b80156106c45780601f10610699576101008083540402835291602001916106c4565b820191906000526020600020905b8154815290600101906020018083116106a757829003601f168201915b50505050508152602001600282015481526020016003820160009054906101000a900473ffffffffffffffffffffffffffffffffffffffff1673ffffffffffffffffffffffffffffffffffffffff1673ffffffffffffffffffffffffffffffffffffffff1681526020016004820160009054906101000a900473ffffffffffffffffffffffffffffffffffffffff1673ffffffffffffffffffffffffffffffffffffffff1673ffffffffffffffffffffffffffffffffffffffff168152505081526020019060010190610586565b505050509050919050565b606060011515600860003373ffffffffffffffffffffffffffffffffffffffff1673ffffffffffffffffffffffffffffffffffffffff16815260200190815260200160002060009054906101000a900460ff16151514610832576040517f08c379a000000000000000000000000000000000000000000000000000000000815260040161082990612a03565b60405180910390fd5b600e60003373ffffffffffffffffffffffffffffffffffffffff1673ffffffffffffffffffffffffffffffffffffffff1681526020019081526020016000208054806020026020016040519081016040528092919081815260200182805480156108f157602002820191906000526020600020905b8160009054906101000a900473ffffffffffffffffffffffffffffffffffffffff1673ffffffffffffffffffffffffffffffffffffffff16815260200190600101908083116108a7575b5050505050905090565b60011515600860003373ffffffffffffffffffffffffffffffffffffffff1673ffffffffffffffffffffffffffffffffffffffff16815260200190815260200160002060009054906101000a900460ff1615151461098e576040517f08c379a000000000000000000000000000000000000000000000000000000000815260040161098590612a6f565b60405180910390fd5b82600b60008473ffffffffffffffffffffffffffffffffffffffff1673ffffffffffffffffffffffffffffffffffffffff168152602001908152602001600020826040516109dc9190612acb565b90815260200160405180910390206001019080519060200190610a00929190612060565b50505050565b610a0e6120e6565b600b60003373ffffffffffffffffffffffffffffffffffffffff1673ffffffffffffffffffffffffffffffffffffffff16815260200190815260200160002082604051610a5b9190612acb565b90815260200160405180910390206040518060a0016040529081600082018054610a8490612985565b80601f0160208091040260200160405190810160405280929190818152602001828054610ab090612985565b8015610afd5780601f10610ad257610100808354040283529160200191610afd565b820191906000526020600020905b815481529060010190602001808311610ae057829003601f168201915b50505050508152602001600182018054610b1690612985565b80601f0160208091040260200160405190810160405280929190818152602001828054610b4290612985565b8015610b8f5780601f10610b6457610100808354040283529160200191610b8f565b820191906000526020600020905b815481529060010190602001808311610b7257829003601f168201915b50505050508152602001600282015481526020016003820160009054906101000a900473ffffffffffffffffffffffffffffffffffffffff1673ffffffffffffffffffffffffffffffffffffffff1673ffffffffffffffffffffffffffffffffffffffff1681526020016004820160009054906101000a900473ffffffffffffffffffffffffffffffffffffffff1673ffffffffffffffffffffffffffffffffffffffff1673ffffffffffffffffffffffffffffffffffffffff16815250509050919050565b6060600c60003373ffffffffffffffffffffffffffffffffffffffff1673ffffffffffffffffffffffffffffffffffffffff168152602001908152602001600020805480602002602001604051908101604052809291908181526020016000905b82821015610ec257838290600052602060002090600502016040518060a0016040529081600082018054610ce990612985565b80601f0160208091040260200160405190810160405280929190818152602001828054610d1590612985565b8015610d625780601f10610d3757610100808354040283529160200191610d62565b820191906000526020600020905b815481529060010190602001808311610d4557829003601f168201915b50505050508152602001600182018054610d7b90612985565b80601f0160208091040260200160405190810160405280929190818152602001828054610da790612985565b8015610df45780601f10610dc957610100808354040283529160200191610df4565b820191906000526020600020905b815481529060010190602001808311610dd757829003601f168201915b50505050508152602001600282015481526020016003820160009054906101000a900473ffffffffffffffffffffffffffffffffffffffff1673ffffffffffffffffffffffffffffffffffffffff1673ffffffffffffffffffffffffffffffffffffffff1681526020016004820160009054906101000a900473ffffffffffffffffffffffffffffffffffffffff1673ffffffffffffffffffffffffffffffffffffffff1673ffffffffffffffffffffffffffffffffffffffff168152505081526020019060010190610cb6565b50505050905090565b606060011515600660003373ffffffffffffffffffffffffffffffffffffffff1673ffffffffffffffffffffffffffffffffffffffff16815260200190815260200160002060009054906101000a900460ff16151514610f60576040517f08c379a0000000000000000000000000000000000000000000000000000000008152600401610f5790612936565b60405180910390fd5b600a60003373ffffffffffffffffffffffffffffffffffffffff1673ffffffffffffffffffffffffffffffffffffffff16815260200190815260200160002080548060200260200160405190810160405280929190818152602001828054801561101f57602002820191906000526020600020905b8160009054906101000a900473ffffffffffffffffffffffffffffffffffffffff1673ffffffffffffffffffffffffffffffffffffffff1681526020019060010190808311610fd5575b5050505050905090565b6000600760003373ffffffffffffffffffffffffffffffffffffffff1673ffffffffffffffffffffffffffffffffffffffff16815260200190815260200160002060009054906101000a900473ffffffffffffffffffffffffffffffffffffffff16905090565b6060600d60003373ffffffffffffffffffffffffffffffffffffffff1673ffffffffffffffffffffffffffffffffffffffff16815260200190815260200160002080548060200260200160405190810160405280929190818152602001828054801561115157602002820191906000526020600020905b8160009054906101000a900473ffffffffffffffffffffffffffffffffffffffff1673ffffffffffffffffffffffffffffffffffffffff1681526020019060010190808311611107575b5050505050905090565b60011515600860003373ffffffffffffffffffffffffffffffffffffffff1673ffffffffffffffffffffffffffffffffffffffff16815260200190815260200160002060009054906101000a900460ff161515146111ee576040517f08c379a00000000000000000000000000000000000000000000000000000000081526004016111e590612a6f565b60405180910390fd5b6111f86001611935565b611200612141565b82816000018190525081816020019073ffffffffffffffffffffffffffffffffffffffff16908173ffffffffffffffffffffffffffffffffffffffff1681525050600d60003373ffffffffffffffffffffffffffffffffffffffff1673ffffffffffffffffffffffffffffffffffffffff168152602001908152602001600020829080600181540180825580915050600190039060005260206000200160009091909190916101000a81548173ffffffffffffffffffffffffffffffffffffffff021916908373ffffffffffffffffffffffffffffffffffffffff1602179055506001600960008473ffffffffffffffffffffffffffffffffffffffff1673ffffffffffffffffffffffffffffffffffffffff16815260200190815260200160002060006101000a81548160ff02191690831515021790555060038190806001815401808255809150506001900390600052602060002090600202016000909190919091506000820151816000019080519060200190611381929190612060565b5060208201518160010160006101000a81548173ffffffffffffffffffffffffffffffffffffffff021916908373ffffffffffffffffffffffffffffffffffffffff1602179055505050505050565b600560009054906101000a900473ffffffffffffffffffffffffffffffffffffffff1681565b60001515600660003373ffffffffffffffffffffffffffffffffffffffff1673ffffffffffffffffffffffffffffffffffffffff16815260200190815260200160002060009054906101000a900460ff16151514611489576040517f08c379a000000000000000000000000000000000000000000000000000000000815260040161148090612b2e565b60405180910390fd5b6001600660003373ffffffffffffffffffffffffffffffffffffffff1673ffffffffffffffffffffffffffffffffffffffff16815260200190815260200160002060006101000a81548160ff0219169083151502179055506004339080600181540180825580915050600190039060005260206000200160009091909190916101000a81548173ffffffffffffffffffffffffffffffffffffffff021916908373ffffffffffffffffffffffffffffffffffffffff160217905550565b3273ffffffffffffffffffffffffffffffffffffffff163373ffffffffffffffffffffffffffffffffffffffff16146115b4576040517f08c379a00000000000000000000000000000000000000000000000000000000081526004016115ab90612b9a565b60405180910390fd5b6115bf83838361194b565b505050565b6115cc6120e6565b60011515600860003373ffffffffffffffffffffffffffffffffffffffff1673ffffffffffffffffffffffffffffffffffffffff16815260200190815260200160002060009054906101000a900460ff1615151461165f576040517f08c379a000000000000000000000000000000000000000000000000000000000815260040161165690612a6f565b60405180910390fd5b600b60008373ffffffffffffffffffffffffffffffffffffffff1673ffffffffffffffffffffffffffffffffffffffff168152602001908152602001600020836040516116ac9190612acb565b90815260200160405180910390206040518060a00160405290816000820180546116d590612985565b80601f016020809104026020016040519081016040528092919081815260200182805461170190612985565b801561174e5780601f106117235761010080835404028352916020019161174e565b820191906000526020600020905b81548152906001019060200180831161173157829003601f168201915b5050505050815260200160018201805461176790612985565b80601f016020809104026020016040519081016040528092919081815260200182805461179390612985565b80156117e05780601f106117b5576101008083540402835291602001916117e0565b820191906000526020600020905b8154815290600101906020018083116117c357829003601f168201915b50505050508152602001600282015481526020016003820160009054906101000a900473ffffffffffffffffffffffffffffffffffffffff1673ffffffffffffffffffffffffffffffffffffffff1673ffffffffffffffffffffffffffffffffffffffff1681526020016004820160009054906101000a900473ffffffffffffffffffffffffffffffffffffffff1673ffffffffffffffffffffffffffffffffffffffff1673ffffffffffffffffffffffffffffffffffffffff1681525050905092915050565b6060600480548060200260200160405190810160405280929190818152602001828054801561192b57602002820191906000526020600020905b8160009054906101000a900473ffffffffffffffffffffffffffffffffffffffff1673ffffffffffffffffffffffffffffffffffffffff16815260200190600101908083116118e1575b5050505050905090565b6001816000016000828254019250508190555050565b60011515600860003373ffffffffffffffffffffffffffffffffffffffff1673ffffffffffffffffffffffffffffffffffffffff16815260200190815260200160002060009054906101000a900460ff161515146119de576040517f08c379a00000000000000000000000000000000000000000000000000000000081526004016119d590612a6f565b60405180910390fd5b60011515600960008573ffffffffffffffffffffffffffffffffffffffff1673ffffffffffffffffffffffffffffffffffffffff16815260200190815260200160002060009054906101000a900460ff16151514611a71576040517f08c379a0000000000000000000000000000000000000000000000000000000008152600401611a6890612c06565b60405180910390fd5b611a7b6000611935565b611a836120e6565b8281600001819052508181602001819052504281604001818152505033816060019073ffffffffffffffffffffffffffffffffffffffff16908173ffffffffffffffffffffffffffffffffffffffff168152505083816080019073ffffffffffffffffffffffffffffffffffffffff16908173ffffffffffffffffffffffffffffffffffffffff168152505080600b60008673ffffffffffffffffffffffffffffffffffffffff1673ffffffffffffffffffffffffffffffffffffffff16815260200190815260200160002084604051611b5d9190612acb565b90815260200160405180910390206000820151816000019080519060200190611b87929190612060565b506020820151816001019080519060200190611ba4929190612060565b506040820151816002015560608201518160030160006101000a81548173ffffffffffffffffffffffffffffffffffffffff021916908373ffffffffffffffffffffffffffffffffffffffff16021790555060808201518160040160006101000a81548173ffffffffffffffffffffffffffffffffffffffff021916908373ffffffffffffffffffffffffffffffffffffffff160217905550905050600e60003373ffffffffffffffffffffffffffffffffffffffff1673ffffffffffffffffffffffffffffffffffffffff168152602001908152602001600020849080600181540180825580915050600190039060005260206000200160009091909190916101000a81548173ffffffffffffffffffffffffffffffffffffffff021916908373ffffffffffffffffffffffffffffffffffffffff160217905550600c60008573ffffffffffffffffffffffffffffffffffffffff1673ffffffffffffffffffffffffffffffffffffffff1681526020019081526020016000208190806001815401808255809150506001900390600052602060002090600502016000909190919091506000820151816000019080519060200190611d65929190612060565b506020820151816001019080519060200190611d82929190612060565b506040820151816002015560608201518160030160006101000a81548173ffffffffffffffffffffffffffffffffffffffff021916908373ffffffffffffffffffffffffffffffffffffffff16021790555060808201518160040160006101000a81548173ffffffffffffffffffffffffffffffffffffffff021916908373ffffffffffffffffffffffffffffffffffffffff1602179055505050600f60003373ffffffffffffffffffffffffffffffffffffffff1673ffffffffffffffffffffffffffffffffffffffff1681526020019081526020016000208190806001815401808255809150506001900390600052602060002090600502016000909190919091506000820151816000019080519060200190611ea2929190612060565b506020820151816001019080519060200190611ebf929190612060565b506040820151816002015560608201518160030160006101000a81548173ffffffffffffffffffffffffffffffffffffffff021916908373ffffffffffffffffffffffffffffffffffffffff16021790555060808201518160040160006101000a81548173ffffffffffffffffffffffffffffffffffffffff021916908373ffffffffffffffffffffffffffffffffffffffff160217905550505060028190806001815401808255809150506001900390600052602060002090600502016000909190919091506000820151816000019080519060200190611fa2929190612060565b506020820151816001019080519060200190611fbf929190612060565b506040820151816002015560608201518160030160006101000a81548173ffffffffffffffffffffffffffffffffffffffff021916908373ffffffffffffffffffffffffffffffffffffffff16021790555060808201518160040160006101000a81548173ffffffffffffffffffffffffffffffffffffffff021916908373ffffffffffffffffffffffffffffffffffffffff160217905550505050505050565b82805461206c90612985565b90600052602060002090601f01602090048101928261208e57600085556120d5565b82601f106120a757805160ff19168380011785556120d5565b828001600101855582156120d5579182015b828111156120d45782518255916020019190600101906120b9565b5b5090506120e29190612171565b5090565b6040518060a00160405280606081526020016060815260200160008152602001600073ffffffffffffffffffffffffffffffffffffffff168152602001600073ffffffffffffffffffffffffffffffffffffffff1681525090565b604051806040016040528060608152602001600073ffffffffffffffffffffffffffffffffffffffff1681525090565b5b8082111561218a576000816000905550600101612172565b5090565b6000604051905090565b600080fd5b600080fd5b600073ffffffffffffffffffffffffffffffffffffffff82169050919050565b60006121cd826121a2565b9050919050565b6121dd816121c2565b81146121e857600080fd5b50565b6000813590506121fa816121d4565b92915050565b60006020828403121561221657612215612198565b5b6000612224848285016121eb565b91505092915050565b600081519050919050565b600082825260208201905092915050565b6000819050602082019050919050565b600081519050919050565b600082825260208201905092915050565b60005b83811015612293578082015181840152602081019050612278565b838111156122a2576000848401525b50505050565b6000601f19601f8301169050919050565b60006122c482612259565b6122ce8185612264565b93506122de818560208601612275565b6122e7816122a8565b840191505092915050565b6000819050919050565b612305816122f2565b82525050565b612314816121c2565b82525050565b600060a083016000830151848203600086015261233782826122b9565b9150506020830151848203602086015261235182826122b9565b915050604083015161236660408601826122fc565b506060830151612379606086018261230b565b50608083015161238c608086018261230b565b508091505092915050565b60006123a3838361231a565b905092915050565b6000602082019050919050565b60006123c38261222d565b6123cd8185612238565b9350836020820285016123df85612249565b8060005b8581101561241b57848403895281516123fc8582612397565b9450612407836123ab565b925060208a019950506001810190506123e3565b50829750879550505050505092915050565b6000602082019050818103600083015261244781846123b8565b905092915050565b600081519050919050565b600082825260208201905092915050565b6000819050602082019050919050565b6000612487838361230b565b60208301905092915050565b6000602082019050919050565b60006124ab8261244f565b6124b5818561245a565b93506124c08361246b565b8060005b838110156124f15781516124d8888261247b565b97506124e383612493565b9250506001810190506124c4565b5085935050505092915050565b6000602082019050818103600083015261251881846124a0565b905092915050565b600080fd5b600080fd5b7f4e487b7100000000000000000000000000000000000000000000000000000000600052604160045260246000fd5b612562826122a8565b810181811067ffffffffffffffff821117156125815761258061252a565b5b80604052505050565b600061259461218e565b90506125a08282612559565b919050565b600067ffffffffffffffff8211156125c0576125bf61252a565b5b6125c9826122a8565b9050602081019050919050565b82818337600083830152505050565b60006125f86125f3846125a5565b61258a565b90508281526020810184848401111561261457612613612525565b5b61261f8482856125d6565b509392505050565b600082601f83011261263c5761263b612520565b5b813561264c8482602086016125e5565b91505092915050565b60008060006060848603121561266e5761266d612198565b5b600084013567ffffffffffffffff81111561268c5761268b61219d565b5b61269886828701612627565b93505060206126a9868287016121eb565b925050604084013567ffffffffffffffff8111156126ca576126c961219d565b5b6126d686828701612627565b9150509250925092565b6000602082840312156126f6576126f5612198565b5b600082013567ffffffffffffffff8111156127145761271361219d565b5b61272084828501612627565b91505092915050565b600060a083016000830151848203600086015261274682826122b9565b9150506020830151848203602086015261276082826122b9565b915050604083015161277560408601826122fc565b506060830151612788606086018261230b565b50608083015161279b608086018261230b565b508091505092915050565b600060208201905081810360008301526127c08184612729565b905092915050565b6127d1816121c2565b82525050565b60006020820190506127ec60008301846127c8565b92915050565b6000806040838503121561280957612808612198565b5b600083013567ffffffffffffffff8111156128275761282661219d565b5b61283385828601612627565b9250506020612844858286016121eb565b9150509250929050565b60008060006060848603121561286757612866612198565b5b6000612875868287016121eb565b935050602084013567ffffffffffffffff8111156128965761289561219d565b5b6128a286828701612627565b925050604084013567ffffffffffffffff8111156128c3576128c261219d565b5b6128cf86828701612627565b9150509250925092565b600082825260208201905092915050565b7f4e6f7420486f73706974616c0000000000000000000000000000000000000000600082015250565b6000612920600c836128d9565b915061292b826128ea565b602082019050919050565b6000602082019050818103600083015261294f81612913565b9050919050565b7f4e487b7100000000000000000000000000000000000000000000000000000000600052602260045260246000fd5b6000600282049050600182168061299d57607f821691505b602082108114156129b1576129b0612956565b5b50919050565b7f4e6f7420446f63746f7200000000000000000000000000000000000000000000600082015250565b60006129ed600a836128d9565b91506129f8826129b7565b602082019050919050565b60006020820190508181036000830152612a1c816129e0565b9050919050565b7f446f63746f72206e6f7420617070726f76656400000000000000000000000000600082015250565b6000612a596013836128d9565b9150612a6482612a23565b602082019050919050565b60006020820190508181036000830152612a8881612a4c565b9050919050565b600081905092915050565b6000612aa582612259565b612aaf8185612a8f565b9350612abf818560208601612275565b80840191505092915050565b6000612ad78284612a9a565b915081905092915050565b7f416c726561647920617070726f76656400000000000000000000000000000000600082015250565b6000612b186010836128d9565b9150612b2382612ae2565b602082019050919050565b60006020820190508181036000830152612b4781612b0b565b9050919050565b7f4163636573732064656e69646500000000000000000000000000000000000000600082015250565b6000612b84600d836128d9565b9150612b8f82612b4e565b602082019050919050565b60006020820190508181036000830152612bb381612b77565b9050919050565b7f50617469656e74206e6f7420617070726f766564000000000000000000000000600082015250565b6000612bf06014836128d9565b9150612bfb82612bba565b602082019050919050565b60006020820190508181036000830152612c1f81612be3565b905091905056fea26469706673582212208ddde707879be999f782d369d50053893e4c292edb38a3c09ab5b8cd2a35498064736f6c63430008090033",
  "linkReferences": {},
  "deployedLinkReferences": {}
}