{
  "_format": "hh-sol-artifact-1",
  "contractName": "Healthcare",
  "sourceName": "contracts/Healthcare.sol",
  "abi": [
    {
      "inputs": [],
      "stateMutability": "nonpayable",
      "type": "constructor"
    },
    {
      "anonymous": false,
      "inputs": [
        {
          "indexed": true,
          "internalType": "address",
          "name": "_doctor",
          "type": "address"
        }
      ],
      "name": "DoctorApproved",
      "type": "event"
    },
    {
      "inputs": [
        {
          "internalType": "string",
          "name": "_info",
          "type": "string"
        },
        {
          "internalType": "address",
          "name": "_address",
          "type": "address"
        }
      ],
      "name": "addPatient",
      "outputs": [],
      "stateMutability": "nonpayable",
      "type": "function"
    },
    {
      "inputs": [
        {
          "internalType": "address",
          "name": "_doctor",
          "type": "address"
        }
      ],
      "name": "allowDoctor",
      "outputs": [],
      "stateMutability": "nonpayable",
      "type": "function"
    },
    {
      "inputs": [],
      "name": "getAllMyAddedPatient",
      "outputs": [
        {
          "internalType": "address[]",
          "name": "",
          "type": "address[]"
        }
      ],
      "stateMutability": "view",
      "type": "function"
    },
    {
      "inputs": [],
      "name": "getAllMyPatients",
      "outputs": [
        {
          "internalType": "address[]",
          "name": "",
          "type": "address[]"
        }
      ],
      "stateMutability": "view",
      "type": "function"
    },
    {
      "inputs": [
        {
          "internalType": "string",
          "name": "_name",
          "type": "string"
        }
      ],
      "name": "getMyReportByName",
      "outputs": [
        {
          "components": [
            {
              "internalType": "string",
              "name": "name",
              "type": "string"
            },
            {
              "internalType": "string",
              "name": "prescription",
              "type": "string"
            },
            {
              "internalType": "uint256",
              "name": "time",
              "type": "uint256"
            },
            {
              "internalType": "address",
              "name": "doctor",
              "type": "address"
            },
            {
              "internalType": "address",
              "name": "patient",
              "type": "address"
            }
          ],
          "internalType": "struct Healthcare.Report",
          "name": "",
          "type": "tuple"
        }
      ],
      "stateMutability": "view",
      "type": "function"
    },
    {
      "inputs": [
        {
          "internalType": "string",
          "name": "_name",
          "type": "string"
        },
        {
          "internalType": "address",
          "name": "_patient",
          "type": "address"
        }
      ],
      "name": "getPatientReportByName",
      "outputs": [
        {
          "components": [
            {
              "internalType": "string",
              "name": "name",
              "type": "string"
            },
            {
              "internalType": "string",
              "name": "prescription",
              "type": "string"
            },
            {
              "internalType": "uint256",
              "name": "time",
              "type": "uint256"
            },
            {
              "internalType": "address",
              "name": "doctor",
              "type": "address"
            },
            {
              "internalType": "address",
              "name": "patient",
              "type": "address"
            }
          ],
          "internalType": "struct Healthcare.Report",
          "name": "",
          "type": "tuple"
        }
      ],
      "stateMutability": "view",
      "type": "function"
    },
    {
      "inputs": [
        {
          "internalType": "address",
          "name": "_address",
          "type": "address"
        }
      ],
      "name": "getReportByDoctorAddress",
      "outputs": [
        {
          "components": [
            {
              "internalType": "string",
              "name": "name",
              "type": "string"
            },
            {
              "internalType": "string",
              "name": "prescription",
              "type": "string"
            },
            {
              "internalType": "uint256",
              "name": "time",
              "type": "uint256"
            },
            {
              "internalType": "address",
              "name": "doctor",
              "type": "address"
            },
            {
              "internalType": "address",
              "name": "patient",
              "type": "address"
            }
          ],
          "internalType": "struct Healthcare.Report[]",
          "name": "",
          "type": "tuple[]"
        }
      ],
      "stateMutability": "view",
      "type": "function"
    },
    {
      "inputs": [],
      "name": "makeThisAddressHospital",
      "outputs": [],
      "stateMutability": "nonpayable",
      "type": "function"
    },
    {
      "inputs": [],
      "name": "owner",
      "outputs": [
        {
          "internalType": "address",
          "name": "",
          "type": "address"
        }
      ],
      "stateMutability": "view",
      "type": "function"
    },
    {
      "inputs": [
        {
          "internalType": "address",
          "name": "_to",
          "type": "address"
        },
        {
          "internalType": "string",
          "name": "_reportName",
          "type": "string"
        },
        {
          "internalType": "string",
          "name": "_prescription",
          "type": "string"
        }
      ],
      "name": "sendReport",
      "outputs": [],
      "stateMutability": "nonpayable",
      "type": "function"
    },
    {
      "inputs": [],
      "name": "showAllDoctors",
      "outputs": [
        {
          "internalType": "address[]",
          "name": "",
          "type": "address[]"
        }
      ],
      "stateMutability": "view",
      "type": "function"
    },
    {
      "inputs": [],
      "name": "showAllHospitals",
      "outputs": [
        {
          "internalType": "address[]",
          "name": "",
          "type": "address[]"
        }
      ],
      "stateMutability": "view",
      "type": "function"
    },
    {
      "inputs": [],
      "name": "showMyHospital",
      "outputs": [
        {
          "internalType": "address",
          "name": "",
          "type": "address"
        }
      ],
      "stateMutability": "view",
      "type": "function"
    },
    {
      "inputs": [],
      "name": "showMyReports",
      "outputs": [
        {
          "components": [
            {
              "internalType": "string",
              "name": "name",
              "type": "string"
            },
            {
              "internalType": "string",
              "name": "prescription",
              "type": "string"
            },
            {
              "internalType": "uint256",
              "name": "time",
              "type": "uint256"
            },
            {
              "internalType": "address",
              "name": "doctor",
              "type": "address"
            },
            {
              "internalType": "address",
              "name": "patient",
              "type": "address"
            }
          ],
          "internalType": "struct Healthcare.Report[]",
          "name": "",
          "type": "tuple[]"
        }
      ],
      "stateMutability": "view",
      "type": "function"
    },
    {
      "inputs": [
        {
          "internalType": "string",
          "name": "_prescription",
          "type": "string"
        },
        {
          "internalType": "address",
          "name": "_patient",
          "type": "address"
        },
        {
          "internalType": "string",
          "name": "_name",
          "type": "string"
        }
      ],
      "name": "updateReport",
      "outputs": [],
      "stateMutability": "nonpayable",
      "type": "function"
    }
  ],
  "bytecode": "0x608060405234801561001057600080fd5b5033600560006101000a81548173ffffffffffffffffffffffffffffffffffffffff021916908373ffffffffffffffffffffffffffffffffffffffff160217905550612de7806100616000396000f3fe608060405234801561001057600080fd5b50600436106100f55760003560e01c806368c1606711610097578063ab73cd2f11610066578063ab73cd2f14610262578063bc30c0411461026c578063d188984014610288578063da8899c1146102b8576100f5565b806368c16067146101ec57806375ecf7811461020a5780638bd87475146102285780638da5cb5b14610244576100f5565b80634b91b10a116100d35780634b91b10a1461016457806355da255a146101805780635c2e7caa146101b0578063684b1f87146101ce576100f5565b806330be6fd3146100fa5780634a345088146101165780634b6ad80314610146575b600080fd5b610114600480360381019061010f9190612117565b6102d6565b005b610130600480360381019061012b9190612117565b610525565b60405161013d919061233b565b60405180910390f35b61014e61079d565b60405161015b919061240c565b60405180910390f35b61017e60048036038101906101799190612563565b6108fb565b005b61019a600480360381019061019591906125ee565b6109ff565b6040516101a791906126b4565b60405180910390f35b6101b8610c4e565b6040516101c5919061233b565b60405180910390f35b6101d6610ec4565b6040516101e3919061240c565b60405180910390f35b6101f4611022565b60405161020191906126e5565b60405180910390f35b610212611089565b60405161021f919061240c565b60405180910390f35b610242600480360381019061023d9190612700565b611154565b005b61024c6113c2565b60405161025991906126e5565b60405180910390f35b61026a6113e8565b005b6102866004803603810190610281919061275c565b611538565b005b6102a2600480360381019061029d9190612700565b6115b6565b6040516102af91906126b4565b60405180910390f35b6102c0611899565b6040516102cd919061240c565b60405180910390f35b60011515600660003373ffffffffffffffffffffffffffffffffffffffff1673ffffffffffffffffffffffffffffffffffffffff16815260200190815260200160002060009054906101000a900460ff16151514610369576040517f08c379a000000000000000000000000000000000000000000000000000000000815260040161036090612844565b60405180910390fd5b6001600860008373ffffffffffffffffffffffffffffffffffffffff1673ffffffffffffffffffffffffffffffffffffffff16815260200190815260200160002060006101000a81548160ff021916908315150217905550600a60003373ffffffffffffffffffffffffffffffffffffffff1673ffffffffffffffffffffffffffffffffffffffff168152602001908152602001600020819080600181540180825580915050600190039060005260206000200160009091909190916101000a81548173ffffffffffffffffffffffffffffffffffffffff021916908373ffffffffffffffffffffffffffffffffffffffff16021790555033600760008373ffffffffffffffffffffffffffffffffffffffff1673ffffffffffffffffffffffffffffffffffffffff16815260200190815260200160002060006101000a81548173ffffffffffffffffffffffffffffffffffffffff021916908373ffffffffffffffffffffffffffffffffffffffff1602179055508073ffffffffffffffffffffffffffffffffffffffff167fcc36c734faf3e8e1867fdfc3adcdcab90ac2d8e24d1a4e6a06f4212045a4e75e60405160405180910390a250565b6060600f60008373ffffffffffffffffffffffffffffffffffffffff1673ffffffffffffffffffffffffffffffffffffffff168152602001908152602001600020805480602002602001604051908101604052809291908181526020016000905b8282101561079257838290600052602060002090600502016040518060a00160405290816000820180546105b990612893565b80601f01602080910402602001604051908101604052809291908181526020018280546105e590612893565b80156106325780601f1061060757610100808354040283529160200191610632565b820191906000526020600020905b81548152906001019060200180831161061557829003601f168201915b5050505050815260200160018201805461064b90612893565b80601f016020809104026020016040519081016040528092919081815260200182805461067790612893565b80156106c45780601f10610699576101008083540402835291602001916106c4565b820191906000526020600020905b8154815290600101906020018083116106a757829003601f168201915b50505050508152602001600282015481526020016003820160009054906101000a900473ffffffffffffffffffffffffffffffffffffffff1673ffffffffffffffffffffffffffffffffffffffff1673ffffffffffffffffffffffffffffffffffffffff1681526020016004820160009054906101000a900473ffffffffffffffffffffffffffffffffffffffff1673ffffffffffffffffffffffffffffffffffffffff1673ffffffffffffffffffffffffffffffffffffffff168152505081526020019060010190610586565b505050509050919050565b606060011515600860003373ffffffffffffffffffffffffffffffffffffffff1673ffffffffffffffffffffffffffffffffffffffff16815260200190815260200160002060009054906101000a900460ff16151514610832576040517f08c379a000000000000000000000000000000000000000000000000000000000815260040161082990612910565b60405180910390fd5b600e60003373ffffffffffffffffffffffffffffffffffffffff1673ffffffffffffffffffffffffffffffffffffffff1681526020019081526020016000208054806020026020016040519081016040528092919081815260200182805480156108f157602002820191906000526020600020905b8160009054906101000a900473ffffffffffffffffffffffffffffffffffffffff1673ffffffffffffffffffffffffffffffffffffffff16815260200190600101908083116108a7575b5050505050905090565b60011515600860003373ffffffffffffffffffffffffffffffffffffffff1673ffffffffffffffffffffffffffffffffffffffff16815260200190815260200160002060009054906101000a900460ff1615151461098e576040517f08c379a00000000000000000000000000000000000000000000000000000000081526004016109859061297c565b60405180910390fd5b82600b60008473ffffffffffffffffffffffffffffffffffffffff1673ffffffffffffffffffffffffffffffffffffffff168152602001908152602001600020826040516109dc91906129d8565b908152602001604051809103902060010190816109f99190612b9b565b50505050565b610a0761201a565b600b60003373ffffffffffffffffffffffffffffffffffffffff1673ffffffffffffffffffffffffffffffffffffffff16815260200190815260200160002082604051610a5491906129d8565b90815260200160405180910390206040518060a0016040529081600082018054610a7d90612893565b80601f0160208091040260200160405190810160405280929190818152602001828054610aa990612893565b8015610af65780601f10610acb57610100808354040283529160200191610af6565b820191906000526020600020905b815481529060010190602001808311610ad957829003601f168201915b50505050508152602001600182018054610b0f90612893565b80601f0160208091040260200160405190810160405280929190818152602001828054610b3b90612893565b8015610b885780601f10610b5d57610100808354040283529160200191610b88565b820191906000526020600020905b815481529060010190602001808311610b6b57829003601f168201915b50505050508152602001600282015481526020016003820160009054906101000a900473ffffffffffffffffffffffffffffffffffffffff1673ffffffffffffffffffffffffffffffffffffffff1673ffffffffffffffffffffffffffffffffffffffff1681526020016004820160009054906101000a900473ffffffffffffffffffffffffffffffffffffffff1673ffffffffffffffffffffffffffffffffffffffff1673ffffffffffffffffffffffffffffffffffffffff16815250509050919050565b6060600c60003373ffffffffffffffffffffffffffffffffffffffff1673ffffffffffffffffffffffffffffffffffffffff168152602001908152602001600020805480602002602001604051908101604052809291908181526020016000905b82821015610ebb57838290600052602060002090600502016040518060a0016040529081600082018054610ce290612893565b80601f0160208091040260200160405190810160405280929190818152602001828054610d0e90612893565b8015610d5b5780601f10610d3057610100808354040283529160200191610d5b565b820191906000526020600020905b815481529060010190602001808311610d3e57829003601f168201915b50505050508152602001600182018054610d7490612893565b80601f0160208091040260200160405190810160405280929190818152602001828054610da090612893565b8015610ded5780601f10610dc257610100808354040283529160200191610ded565b820191906000526020600020905b815481529060010190602001808311610dd057829003601f168201915b50505050508152602001600282015481526020016003820160009054906101000a900473ffffffffffffffffffffffffffffffffffffffff1673ffffffffffffffffffffffffffffffffffffffff1673ffffffffffffffffffffffffffffffffffffffff1681526020016004820160009054906101000a900473ffffffffffffffffffffffffffffffffffffffff1673ffffffffffffffffffffffffffffffffffffffff1673ffffffffffffffffffffffffffffffffffffffff168152505081526020019060010190610caf565b50505050905090565b606060011515600660003373ffffffffffffffffffffffffffffffffffffffff1673ffffffffffffffffffffffffffffffffffffffff16815260200190815260200160002060009054906101000a900460ff16151514610f59576040517f08c379a0000000000000000000000000000000000000000000000000000000008152600401610f5090612844565b60405180910390fd5b600a60003373ffffffffffffffffffffffffffffffffffffffff1673ffffffffffffffffffffffffffffffffffffffff16815260200190815260200160002080548060200260200160405190810160405280929190818152602001828054801561101857602002820191906000526020600020905b8160009054906101000a900473ffffffffffffffffffffffffffffffffffffffff1673ffffffffffffffffffffffffffffffffffffffff1681526020019060010190808311610fce575b5050505050905090565b6000600760003373ffffffffffffffffffffffffffffffffffffffff1673ffffffffffffffffffffffffffffffffffffffff16815260200190815260200160002060009054906101000a900473ffffffffffffffffffffffffffffffffffffffff16905090565b6060600d60003373ffffffffffffffffffffffffffffffffffffffff1673ffffffffffffffffffffffffffffffffffffffff16815260200190815260200160002080548060200260200160405190810160405280929190818152602001828054801561114a57602002820191906000526020600020905b8160009054906101000a900473ffffffffffffffffffffffffffffffffffffffff1673ffffffffffffffffffffffffffffffffffffffff1681526020019060010190808311611100575b5050505050905090565b60011515600860003373ffffffffffffffffffffffffffffffffffffffff1673ffffffffffffffffffffffffffffffffffffffff16815260200190815260200160002060009054906101000a900460ff161515146111e7576040517f08c379a00000000000000000000000000000000000000000000000000000000081526004016111de9061297c565b60405180910390fd5b6111f16001611927565b6111f9612075565b82816000018190525081816020019073ffffffffffffffffffffffffffffffffffffffff16908173ffffffffffffffffffffffffffffffffffffffff1681525050600d60003373ffffffffffffffffffffffffffffffffffffffff1673ffffffffffffffffffffffffffffffffffffffff168152602001908152602001600020829080600181540180825580915050600190039060005260206000200160009091909190916101000a81548173ffffffffffffffffffffffffffffffffffffffff021916908373ffffffffffffffffffffffffffffffffffffffff1602179055506001600960008473ffffffffffffffffffffffffffffffffffffffff1673ffffffffffffffffffffffffffffffffffffffff16815260200190815260200160002060006101000a81548160ff021916908315150217905550600381908060018154018082558091505060019003906000526020600020906002020160009091909190915060008201518160000190816113739190612b9b565b5060208201518160010160006101000a81548173ffffffffffffffffffffffffffffffffffffffff021916908373ffffffffffffffffffffffffffffffffffffffff1602179055505050505050565b600560009054906101000a900473ffffffffffffffffffffffffffffffffffffffff1681565b60001515600660003373ffffffffffffffffffffffffffffffffffffffff1673ffffffffffffffffffffffffffffffffffffffff16815260200190815260200160002060009054906101000a900460ff1615151461147b576040517f08c379a000000000000000000000000000000000000000000000000000000000815260040161147290612cb9565b60405180910390fd5b6001600660003373ffffffffffffffffffffffffffffffffffffffff1673ffffffffffffffffffffffffffffffffffffffff16815260200190815260200160002060006101000a81548160ff0219169083151502179055506004339080600181540180825580915050600190039060005260206000200160009091909190916101000a81548173ffffffffffffffffffffffffffffffffffffffff021916908373ffffffffffffffffffffffffffffffffffffffff160217905550565b3273ffffffffffffffffffffffffffffffffffffffff163373ffffffffffffffffffffffffffffffffffffffff16146115a6576040517f08c379a000000000000000000000000000000000000000000000000000000000815260040161159d90612d25565b60405180910390fd5b6115b183838361193d565b505050565b6115be61201a565b60011515600860003373ffffffffffffffffffffffffffffffffffffffff1673ffffffffffffffffffffffffffffffffffffffff16815260200190815260200160002060009054906101000a900460ff16151514611651576040517f08c379a00000000000000000000000000000000000000000000000000000000081526004016116489061297c565b60405180910390fd5b600b60008373ffffffffffffffffffffffffffffffffffffffff1673ffffffffffffffffffffffffffffffffffffffff1681526020019081526020016000208360405161169e91906129d8565b90815260200160405180910390206040518060a00160405290816000820180546116c790612893565b80601f01602080910402602001604051908101604052809291908181526020018280546116f390612893565b80156117405780601f1061171557610100808354040283529160200191611740565b820191906000526020600020905b81548152906001019060200180831161172357829003601f168201915b5050505050815260200160018201805461175990612893565b80601f016020809104026020016040519081016040528092919081815260200182805461178590612893565b80156117d25780601f106117a7576101008083540402835291602001916117d2565b820191906000526020600020905b8154815290600101906020018083116117b557829003601f168201915b50505050508152602001600282015481526020016003820160009054906101000a900473ffffffffffffffffffffffffffffffffffffffff1673ffffffffffffffffffffffffffffffffffffffff1673ffffffffffffffffffffffffffffffffffffffff1681526020016004820160009054906101000a900473ffffffffffffffffffffffffffffffffffffffff1673ffffffffffffffffffffffffffffffffffffffff1673ffffffffffffffffffffffffffffffffffffffff1681525050905092915050565b6060600480548060200260200160405190810160405280929190818152602001828054801561191d57602002820191906000526020600020905b8160009054906101000a900473ffffffffffffffffffffffffffffffffffffffff1673ffffffffffffffffffffffffffffffffffffffff16815260200190600101908083116118d3575b5050505050905090565b6001816000016000828254019250508190555050565b60011515600860003373ffffffffffffffffffffffffffffffffffffffff1673ffffffffffffffffffffffffffffffffffffffff16815260200190815260200160002060009054906101000a900460ff161515146119d0576040517f08c379a00000000000000000000000000000000000000000000000000000000081526004016119c79061297c565b60405180910390fd5b60011515600960008573ffffffffffffffffffffffffffffffffffffffff1673ffffffffffffffffffffffffffffffffffffffff16815260200190815260200160002060009054906101000a900460ff16151514611a63576040517f08c379a0000000000000000000000000000000000000000000000000000000008152600401611a5a90612d91565b60405180910390fd5b611a6d6000611927565b611a7561201a565b8281600001819052508181602001819052504281604001818152505033816060019073ffffffffffffffffffffffffffffffffffffffff16908173ffffffffffffffffffffffffffffffffffffffff168152505083816080019073ffffffffffffffffffffffffffffffffffffffff16908173ffffffffffffffffffffffffffffffffffffffff168152505080600b60008673ffffffffffffffffffffffffffffffffffffffff1673ffffffffffffffffffffffffffffffffffffffff16815260200190815260200160002084604051611b4f91906129d8565b90815260200160405180910390206000820151816000019081611b729190612b9b565b506020820151816001019081611b889190612b9b565b506040820151816002015560608201518160030160006101000a81548173ffffffffffffffffffffffffffffffffffffffff021916908373ffffffffffffffffffffffffffffffffffffffff16021790555060808201518160040160006101000a81548173ffffffffffffffffffffffffffffffffffffffff021916908373ffffffffffffffffffffffffffffffffffffffff160217905550905050600e60003373ffffffffffffffffffffffffffffffffffffffff1673ffffffffffffffffffffffffffffffffffffffff168152602001908152602001600020849080600181540180825580915050600190039060005260206000200160009091909190916101000a81548173ffffffffffffffffffffffffffffffffffffffff021916908373ffffffffffffffffffffffffffffffffffffffff160217905550600c60008573ffffffffffffffffffffffffffffffffffffffff1673ffffffffffffffffffffffffffffffffffffffff1681526020019081526020016000208190806001815401808255809150506001900390600052602060002090600502016000909190919091506000820151816000019081611d429190612b9b565b506020820151816001019081611d589190612b9b565b506040820151816002015560608201518160030160006101000a81548173ffffffffffffffffffffffffffffffffffffffff021916908373ffffffffffffffffffffffffffffffffffffffff16021790555060808201518160040160006101000a81548173ffffffffffffffffffffffffffffffffffffffff021916908373ffffffffffffffffffffffffffffffffffffffff1602179055505050600f60003373ffffffffffffffffffffffffffffffffffffffff1673ffffffffffffffffffffffffffffffffffffffff1681526020019081526020016000208190806001815401808255809150506001900390600052602060002090600502016000909190919091506000820151816000019081611e719190612b9b565b506020820151816001019081611e879190612b9b565b506040820151816002015560608201518160030160006101000a81548173ffffffffffffffffffffffffffffffffffffffff021916908373ffffffffffffffffffffffffffffffffffffffff16021790555060808201518160040160006101000a81548173ffffffffffffffffffffffffffffffffffffffff021916908373ffffffffffffffffffffffffffffffffffffffff160217905550505060028190806001815401808255809150506001900390600052602060002090600502016000909190919091506000820151816000019081611f639190612b9b565b506020820151816001019081611f799190612b9b565b506040820151816002015560608201518160030160006101000a81548173ffffffffffffffffffffffffffffffffffffffff021916908373ffffffffffffffffffffffffffffffffffffffff16021790555060808201518160040160006101000a81548173ffffffffffffffffffffffffffffffffffffffff021916908373ffffffffffffffffffffffffffffffffffffffff160217905550505050505050565b6040518060a00160405280606081526020016060815260200160008152602001600073ffffffffffffffffffffffffffffffffffffffff168152602001600073ffffffffffffffffffffffffffffffffffffffff1681525090565b604051806040016040528060608152602001600073ffffffffffffffffffffffffffffffffffffffff1681525090565b6000604051905090565b600080fd5b600080fd5b600073ffffffffffffffffffffffffffffffffffffffff82169050919050565b60006120e4826120b9565b9050919050565b6120f4816120d9565b81146120ff57600080fd5b50565b600081359050612111816120eb565b92915050565b60006020828403121561212d5761212c6120af565b5b600061213b84828501612102565b91505092915050565b600081519050919050565b600082825260208201905092915050565b6000819050602082019050919050565b600081519050919050565b600082825260208201905092915050565b60005b838110156121aa57808201518184015260208101905061218f565b60008484015250505050565b6000601f19601f8301169050919050565b60006121d282612170565b6121dc818561217b565b93506121ec81856020860161218c565b6121f5816121b6565b840191505092915050565b6000819050919050565b61221381612200565b82525050565b612222816120d9565b82525050565b600060a083016000830151848203600086015261224582826121c7565b9150506020830151848203602086015261225f82826121c7565b9150506040830151612274604086018261220a565b5060608301516122876060860182612219565b50608083015161229a6080860182612219565b508091505092915050565b60006122b18383612228565b905092915050565b6000602082019050919050565b60006122d182612144565b6122db818561214f565b9350836020820285016122ed85612160565b8060005b85811015612329578484038952815161230a85826122a5565b9450612315836122b9565b925060208a019950506001810190506122f1565b50829750879550505050505092915050565b6000602082019050818103600083015261235581846122c6565b905092915050565b600081519050919050565b600082825260208201905092915050565b6000819050602082019050919050565b60006123958383612219565b60208301905092915050565b6000602082019050919050565b60006123b98261235d565b6123c38185612368565b93506123ce83612379565b8060005b838110156123ff5781516123e68882612389565b97506123f1836123a1565b9250506001810190506123d2565b5085935050505092915050565b6000602082019050818103600083015261242681846123ae565b905092915050565b600080fd5b600080fd5b7f4e487b7100000000000000000000000000000000000000000000000000000000600052604160045260246000fd5b612470826121b6565b810181811067ffffffffffffffff8211171561248f5761248e612438565b5b80604052505050565b60006124a26120a5565b90506124ae8282612467565b919050565b600067ffffffffffffffff8211156124ce576124cd612438565b5b6124d7826121b6565b9050602081019050919050565b82818337600083830152505050565b6000612506612501846124b3565b612498565b90508281526020810184848401111561252257612521612433565b5b61252d8482856124e4565b509392505050565b600082601f83011261254a5761254961242e565b5b813561255a8482602086016124f3565b91505092915050565b60008060006060848603121561257c5761257b6120af565b5b600084013567ffffffffffffffff81111561259a576125996120b4565b5b6125a686828701612535565b93505060206125b786828701612102565b925050604084013567ffffffffffffffff8111156125d8576125d76120b4565b5b6125e486828701612535565b9150509250925092565b600060208284031215612604576126036120af565b5b600082013567ffffffffffffffff811115612622576126216120b4565b5b61262e84828501612535565b91505092915050565b600060a083016000830151848203600086015261265482826121c7565b9150506020830151848203602086015261266e82826121c7565b9150506040830151612683604086018261220a565b5060608301516126966060860182612219565b5060808301516126a96080860182612219565b508091505092915050565b600060208201905081810360008301526126ce8184612637565b905092915050565b6126df816120d9565b82525050565b60006020820190506126fa60008301846126d6565b92915050565b60008060408385031215612717576127166120af565b5b600083013567ffffffffffffffff811115612735576127346120b4565b5b61274185828601612535565b925050602061275285828601612102565b9150509250929050565b600080600060608486031215612775576127746120af565b5b600061278386828701612102565b935050602084013567ffffffffffffffff8111156127a4576127a36120b4565b5b6127b086828701612535565b925050604084013567ffffffffffffffff8111156127d1576127d06120b4565b5b6127dd86828701612535565b9150509250925092565b600082825260208201905092915050565b7f4e6f7420486f73706974616c0000000000000000000000000000000000000000600082015250565b600061282e600c836127e7565b9150612839826127f8565b602082019050919050565b6000602082019050818103600083015261285d81612821565b9050919050565b7f4e487b7100000000000000000000000000000000000000000000000000000000600052602260045260246000fd5b600060028204905060018216806128ab57607f821691505b6020821081036128be576128bd612864565b5b50919050565b7f4e6f7420446f63746f7200000000000000000000000000000000000000000000600082015250565b60006128fa600a836127e7565b9150612905826128c4565b602082019050919050565b60006020820190508181036000830152612929816128ed565b9050919050565b7f446f63746f72206e6f7420617070726f76656400000000000000000000000000600082015250565b60006129666013836127e7565b915061297182612930565b602082019050919050565b6000602082019050818103600083015261299581612959565b9050919050565b600081905092915050565b60006129b282612170565b6129bc818561299c565b93506129cc81856020860161218c565b80840191505092915050565b60006129e482846129a7565b915081905092915050565b60008190508160005260206000209050919050565b60006020601f8301049050919050565b600082821b905092915050565b600060088302612a517fffffffffffffffffffffffffffffffffffffffffffffffffffffffffffffffff82612a14565b612a5b8683612a14565b95508019841693508086168417925050509392505050565b6000819050919050565b6000612a98612a93612a8e84612200565b612a73565b612200565b9050919050565b6000819050919050565b612ab283612a7d565b612ac6612abe82612a9f565b848454612a21565b825550505050565b600090565b612adb612ace565b612ae6818484612aa9565b505050565b5b81811015612b0a57612aff600082612ad3565b600181019050612aec565b5050565b601f821115612b4f57612b20816129ef565b612b2984612a04565b81016020851015612b38578190505b612b4c612b4485612a04565b830182612aeb565b50505b505050565b600082821c905092915050565b6000612b7260001984600802612b54565b1980831691505092915050565b6000612b8b8383612b61565b9150826002028217905092915050565b612ba482612170565b67ffffffffffffffff811115612bbd57612bbc612438565b5b612bc78254612893565b612bd2828285612b0e565b600060209050601f831160018114612c055760008415612bf3578287015190505b612bfd8582612b7f565b865550612c65565b601f198416612c13866129ef565b60005b82811015612c3b57848901518255600182019150602085019450602081019050612c16565b86831015612c585784890151612c54601f891682612b61565b8355505b6001600288020188555050505b505050505050565b7f416c726561647920617070726f76656400000000000000000000000000000000600082015250565b6000612ca36010836127e7565b9150612cae82612c6d565b602082019050919050565b60006020820190508181036000830152612cd281612c96565b9050919050565b7f4163636573732064656e69646500000000000000000000000000000000000000600082015250565b6000612d0f600d836127e7565b9150612d1a82612cd9565b602082019050919050565b60006020820190508181036000830152612d3e81612d02565b9050919050565b7f50617469656e74206e6f7420617070726f766564000000000000000000000000600082015250565b6000612d7b6014836127e7565b9150612d8682612d45565b602082019050919050565b60006020820190508181036000830152612daa81612d6e565b905091905056fea26469706673582212209d3380c915a4105b7c9a1960bc35d0db9eac6e87e4590f50674163bb45f543d064736f6c63430008110033",
  "linkReferences": {},
  "deployedLinkReferences": {}
}